{
  "_format": "hh-sol-artifact-1",
  "contractName": "FundRig",
  "sourceName": "contracts/rigs/fund/FundRig.sol",
  "abi": [
    {
      "inputs": [
        {
          "internalType": "address",
          "name": "_unit",
          "type": "address"
        },
        {
          "internalType": "address",
          "name": "_quote",
          "type": "address"
        },
        {
          "internalType": "address",
          "name": "_core",
          "type": "address"
        },
        {
          "internalType": "address",
          "name": "_treasury",
          "type": "address"
        },
        {
          "internalType": "address",
          "name": "_team",
          "type": "address"
        },
        {
          "internalType": "address",
          "name": "_recipient",
          "type": "address"
        },
        {
          "components": [
            {
              "internalType": "uint256",
              "name": "initialEmission",
              "type": "uint256"
            },
            {
              "internalType": "uint256",
              "name": "minEmission",
              "type": "uint256"
            },
            {
              "internalType": "uint256",
              "name": "halvingPeriod",
              "type": "uint256"
            }
          ],
          "internalType": "struct FundRig.Config",
          "name": "_config",
          "type": "tuple"
        }
      ],
      "stateMutability": "nonpayable",
      "type": "constructor"
    },
    {
      "inputs": [],
      "name": "FundRig__AlreadyClaimed",
      "type": "error"
    },
    {
      "inputs": [],
      "name": "FundRig__BelowMinDonation",
      "type": "error"
    },
    {
      "inputs": [],
      "name": "FundRig__DayNotEnded",
      "type": "error"
    },
    {
      "inputs": [],
      "name": "FundRig__EmissionOutOfRange",
      "type": "error"
    },
    {
      "inputs": [],
      "name": "FundRig__HalvingPeriodOutOfRange",
      "type": "error"
    },
    {
      "inputs": [],
      "name": "FundRig__NoDonation",
      "type": "error"
    },
    {
      "inputs": [],
      "name": "FundRig__RecipientNotSet",
      "type": "error"
    },
    {
      "inputs": [],
      "name": "FundRig__ZeroAddress",
      "type": "error"
    },
    {
      "inputs": [],
      "name": "FundRig__ZeroFunder",
      "type": "error"
    },
    {
      "anonymous": false,
      "inputs": [
        {
          "indexed": true,
          "internalType": "address",
          "name": "account",
          "type": "address"
        },
        {
          "indexed": false,
          "internalType": "uint256",
          "name": "amount",
          "type": "uint256"
        },
        {
          "indexed": false,
          "internalType": "uint256",
          "name": "day",
          "type": "uint256"
        }
      ],
      "name": "FundRig__Claimed",
      "type": "event"
    },
    {
      "anonymous": false,
      "inputs": [
        {
          "indexed": false,
          "internalType": "address",
          "name": "sender",
          "type": "address"
        },
        {
          "indexed": true,
          "internalType": "address",
          "name": "funder",
          "type": "address"
        },
        {
          "indexed": false,
          "internalType": "uint256",
          "name": "amount",
          "type": "uint256"
        },
        {
          "indexed": false,
          "internalType": "uint256",
          "name": "day",
          "type": "uint256"
        },
        {
          "indexed": false,
          "internalType": "string",
          "name": "uri",
          "type": "string"
        }
      ],
      "name": "FundRig__Funded",
      "type": "event"
    },
    {
      "anonymous": false,
      "inputs": [
        {
          "indexed": true,
          "internalType": "address",
          "name": "protocol",
          "type": "address"
        },
        {
          "indexed": true,
          "internalType": "uint256",
          "name": "day",
          "type": "uint256"
        },
        {
          "indexed": false,
          "internalType": "uint256",
          "name": "amount",
          "type": "uint256"
        }
      ],
      "name": "FundRig__ProtocolFee",
      "type": "event"
    },
    {
      "anonymous": false,
      "inputs": [
        {
          "indexed": true,
          "internalType": "address",
          "name": "recipient",
          "type": "address"
        }
      ],
      "name": "FundRig__RecipientSet",
      "type": "event"
    },
    {
      "anonymous": false,
      "inputs": [
        {
          "indexed": true,
          "internalType": "address",
          "name": "team",
          "type": "address"
        },
        {
          "indexed": true,
          "internalType": "uint256",
          "name": "day",
          "type": "uint256"
        },
        {
          "indexed": false,
          "internalType": "uint256",
          "name": "amount",
          "type": "uint256"
        }
      ],
      "name": "FundRig__TeamFee",
      "type": "event"
    },
    {
      "anonymous": false,
      "inputs": [
        {
          "indexed": true,
          "internalType": "address",
          "name": "team",
          "type": "address"
        }
      ],
      "name": "FundRig__TeamSet",
      "type": "event"
    },
    {
      "anonymous": false,
      "inputs": [
        {
          "indexed": true,
          "internalType": "address",
          "name": "treasury",
          "type": "address"
        },
        {
          "indexed": true,
          "internalType": "uint256",
          "name": "day",
          "type": "uint256"
        },
        {
          "indexed": false,
          "internalType": "uint256",
          "name": "amount",
          "type": "uint256"
        }
      ],
      "name": "FundRig__TreasuryFee",
      "type": "event"
    },
    {
      "anonymous": false,
      "inputs": [
        {
          "indexed": true,
          "internalType": "address",
          "name": "treasury",
          "type": "address"
        }
      ],
      "name": "FundRig__TreasurySet",
      "type": "event"
    },
    {
      "anonymous": false,
      "inputs": [
        {
          "indexed": false,
          "internalType": "string",
          "name": "uri",
          "type": "string"
        }
      ],
      "name": "FundRig__UriSet",
      "type": "event"
    },
    {
      "anonymous": false,
      "inputs": [
        {
          "indexed": true,
          "internalType": "address",
          "name": "previousOwner",
          "type": "address"
        },
        {
          "indexed": true,
          "internalType": "address",
          "name": "newOwner",
          "type": "address"
        }
      ],
      "name": "OwnershipTransferred",
      "type": "event"
    },
    {
      "inputs": [],
      "name": "DAY_DURATION",
      "outputs": [
        {
          "internalType": "uint256",
          "name": "",
          "type": "uint256"
        }
      ],
      "stateMutability": "view",
      "type": "function"
    },
    {
      "inputs": [],
      "name": "DIVISOR",
      "outputs": [
        {
          "internalType": "uint256",
          "name": "",
          "type": "uint256"
        }
      ],
      "stateMutability": "view",
      "type": "function"
    },
    {
      "inputs": [],
      "name": "MAX_HALVING_PERIOD",
      "outputs": [
        {
          "internalType": "uint256",
          "name": "",
          "type": "uint256"
        }
      ],
      "stateMutability": "view",
      "type": "function"
    },
    {
      "inputs": [],
      "name": "MAX_INITIAL_EMISSION",
      "outputs": [
        {
          "internalType": "uint256",
          "name": "",
          "type": "uint256"
        }
      ],
      "stateMutability": "view",
      "type": "function"
    },
    {
      "inputs": [],
      "name": "MIN_DONATION",
      "outputs": [
        {
          "internalType": "uint256",
          "name": "",
          "type": "uint256"
        }
      ],
      "stateMutability": "view",
      "type": "function"
    },
    {
      "inputs": [],
      "name": "MIN_HALVING_PERIOD",
      "outputs": [
        {
          "internalType": "uint256",
          "name": "",
          "type": "uint256"
        }
      ],
      "stateMutability": "view",
      "type": "function"
    },
    {
      "inputs": [],
      "name": "MIN_INITIAL_EMISSION",
      "outputs": [
        {
          "internalType": "uint256",
          "name": "",
          "type": "uint256"
        }
      ],
      "stateMutability": "view",
      "type": "function"
    },
    {
      "inputs": [],
      "name": "PROTOCOL_BPS",
      "outputs": [
        {
          "internalType": "uint256",
          "name": "",
          "type": "uint256"
        }
      ],
      "stateMutability": "view",
      "type": "function"
    },
    {
      "inputs": [],
      "name": "RECIPIENT_BPS",
      "outputs": [
        {
          "internalType": "uint256",
          "name": "",
          "type": "uint256"
        }
      ],
      "stateMutability": "view",
      "type": "function"
    },
    {
      "inputs": [],
      "name": "TEAM_BPS",
      "outputs": [
        {
          "internalType": "uint256",
          "name": "",
          "type": "uint256"
        }
      ],
      "stateMutability": "view",
      "type": "function"
    },
    {
      "inputs": [
        {
          "internalType": "address",
          "name": "account",
          "type": "address"
        },
        {
          "internalType": "uint256",
          "name": "day",
          "type": "uint256"
        }
      ],
      "name": "claim",
      "outputs": [],
      "stateMutability": "nonpayable",
      "type": "function"
    },
    {
      "inputs": [],
      "name": "core",
      "outputs": [
        {
          "internalType": "address",
          "name": "",
          "type": "address"
        }
      ],
      "stateMutability": "view",
      "type": "function"
    },
    {
      "inputs": [],
      "name": "currentDay",
      "outputs": [
        {
          "internalType": "uint256",
          "name": "",
          "type": "uint256"
        }
      ],
      "stateMutability": "view",
      "type": "function"
    },
    {
      "inputs": [
        {
          "internalType": "uint256",
          "name": "",
          "type": "uint256"
        },
        {
          "internalType": "address",
          "name": "",
          "type": "address"
        }
      ],
      "name": "dayAccountToDonation",
      "outputs": [
        {
          "internalType": "uint256",
          "name": "",
          "type": "uint256"
        }
      ],
      "stateMutability": "view",
      "type": "function"
    },
    {
      "inputs": [
        {
          "internalType": "uint256",
          "name": "",
          "type": "uint256"
        },
        {
          "internalType": "address",
          "name": "",
          "type": "address"
        }
      ],
      "name": "dayAccountToHasClaimed",
      "outputs": [
        {
          "internalType": "bool",
          "name": "",
          "type": "bool"
        }
      ],
      "stateMutability": "view",
      "type": "function"
    },
    {
      "inputs": [
        {
          "internalType": "uint256",
          "name": "",
          "type": "uint256"
        }
      ],
      "name": "dayToTotalDonated",
      "outputs": [
        {
          "internalType": "uint256",
          "name": "",
          "type": "uint256"
        }
      ],
      "stateMutability": "view",
      "type": "function"
    },
    {
      "inputs": [
        {
          "internalType": "address",
          "name": "account",
          "type": "address"
        },
        {
          "internalType": "uint256",
          "name": "amount",
          "type": "uint256"
        },
        {
          "internalType": "string",
          "name": "_uri",
          "type": "string"
        }
      ],
      "name": "fund",
      "outputs": [],
      "stateMutability": "nonpayable",
      "type": "function"
    },
    {
      "inputs": [
        {
          "internalType": "uint256",
          "name": "day",
          "type": "uint256"
        }
      ],
      "name": "getDayEmission",
      "outputs": [
        {
          "internalType": "uint256",
          "name": "",
          "type": "uint256"
        }
      ],
      "stateMutability": "view",
      "type": "function"
    },
    {
      "inputs": [
        {
          "internalType": "uint256",
          "name": "day",
          "type": "uint256"
        },
        {
          "internalType": "address",
          "name": "account",
          "type": "address"
        }
      ],
      "name": "getPendingReward",
      "outputs": [
        {
          "internalType": "uint256",
          "name": "",
          "type": "uint256"
        }
      ],
      "stateMutability": "view",
      "type": "function"
    },
    {
      "inputs": [],
      "name": "halvingPeriod",
      "outputs": [
        {
          "internalType": "uint256",
          "name": "",
          "type": "uint256"
        }
      ],
      "stateMutability": "view",
      "type": "function"
    },
    {
      "inputs": [],
      "name": "initialEmission",
      "outputs": [
        {
          "internalType": "uint256",
          "name": "",
          "type": "uint256"
        }
      ],
      "stateMutability": "view",
      "type": "function"
    },
    {
      "inputs": [],
      "name": "minEmission",
      "outputs": [
        {
          "internalType": "uint256",
          "name": "",
          "type": "uint256"
        }
      ],
      "stateMutability": "view",
      "type": "function"
    },
    {
      "inputs": [],
      "name": "owner",
      "outputs": [
        {
          "internalType": "address",
          "name": "",
          "type": "address"
        }
      ],
      "stateMutability": "view",
      "type": "function"
    },
    {
      "inputs": [],
      "name": "quote",
      "outputs": [
        {
          "internalType": "address",
          "name": "",
          "type": "address"
        }
      ],
      "stateMutability": "view",
      "type": "function"
    },
    {
      "inputs": [],
      "name": "recipient",
      "outputs": [
        {
          "internalType": "address",
          "name": "",
          "type": "address"
        }
      ],
      "stateMutability": "view",
      "type": "function"
    },
    {
      "inputs": [],
      "name": "renounceOwnership",
      "outputs": [],
      "stateMutability": "nonpayable",
      "type": "function"
    },
    {
      "inputs": [
        {
          "internalType": "address",
          "name": "_recipient",
          "type": "address"
        }
      ],
      "name": "setRecipient",
      "outputs": [],
      "stateMutability": "nonpayable",
      "type": "function"
    },
    {
      "inputs": [
        {
          "internalType": "address",
          "name": "_team",
          "type": "address"
        }
      ],
      "name": "setTeam",
      "outputs": [],
      "stateMutability": "nonpayable",
      "type": "function"
    },
    {
      "inputs": [
        {
          "internalType": "address",
          "name": "_treasury",
          "type": "address"
        }
      ],
      "name": "setTreasury",
      "outputs": [],
      "stateMutability": "nonpayable",
      "type": "function"
    },
    {
      "inputs": [
        {
          "internalType": "string",
          "name": "_uri",
          "type": "string"
        }
      ],
      "name": "setUri",
      "outputs": [],
      "stateMutability": "nonpayable",
      "type": "function"
    },
    {
      "inputs": [],
      "name": "startTime",
      "outputs": [
        {
          "internalType": "uint256",
          "name": "",
          "type": "uint256"
        }
      ],
      "stateMutability": "view",
      "type": "function"
    },
    {
      "inputs": [],
      "name": "team",
      "outputs": [
        {
          "internalType": "address",
          "name": "",
          "type": "address"
        }
      ],
      "stateMutability": "view",
      "type": "function"
    },
    {
      "inputs": [
        {
          "internalType": "address",
          "name": "newOwner",
          "type": "address"
        }
      ],
      "name": "transferOwnership",
      "outputs": [],
      "stateMutability": "nonpayable",
      "type": "function"
    },
    {
      "inputs": [],
      "name": "treasury",
      "outputs": [
        {
          "internalType": "address",
          "name": "",
          "type": "address"
        }
      ],
      "stateMutability": "view",
      "type": "function"
    },
    {
      "inputs": [],
      "name": "unit",
      "outputs": [
        {
          "internalType": "address",
          "name": "",
          "type": "address"
        }
      ],
      "stateMutability": "view",
      "type": "function"
    },
    {
      "inputs": [],
      "name": "uri",
      "outputs": [
        {
          "internalType": "string",
          "name": "",
          "type": "string"
        }
      ],
      "stateMutability": "view",
      "type": "function"
    }
  ],
  "bytecode": "0x610160346200030c576001600160401b03601f62001bee38819003918201601f191684019183831185841017620002f6578085926040948552833981010391610120928381126200030c57620000558562000311565b91620000646020870162000311565b926200007285880162000311565b93620000816060890162000311565b906200009060808a0162000311565b6060620000a060a08c0162000311565b9660bf1901126200030c578751946060860190811186821017620002f657885260c08a0151855260e08a01519560208601968752610100809b01519789870198895260016000556001549360018060a01b03199533878716176001558b5160018060a01b0396873391167f8be0079c531659141344cd1fd0a4f28419497f9722a3daafe3b4186f6b6457e0600080a386891615620002e7575085821615620002d65785831615620002d6578516928315620002d6578516968715620002d6578851670de0b6b3a76400008110908115620002be575b50620002a15789518015908115620002b2575b50620002a1578a516007811090811562000294575b50620002835760805260a05260c05283600354161760035516816004541617600455600254161760025551855251835251906101409182524260e05251916118c793846200032785396080518481816105f20152610992015260a05184818161094d01528181610d3701528181610e8301528181610ebf01528181610fc90152611026015260c05184818161028f0152610d79015260e05184818161054101528181610a6601528181610bea01528181610cce01526117f0015251838181610a2b015261179501525182818161119e01526117b8015251818181610c30015261176e0152f35b8b516352b81c6760e11b8152600490fd5b61016d915011386200019d565b8b51632cd1610b60e11b8152600490fd5b90508951103862000188565b6c0c9f2c9cd04674edea400000009150113862000175565b8b51630ba70fd360e41b8152600490fd5b630ba70fd360e41b8152600490fd5b634e487b7160e01b600052604160045260246000fd5b600080fd5b51906001600160a01b03821682036200030c5756fe608080604052600436101561001357600080fd5b600090813560e01c908162f973c6146112b057508063095cf5c61461124857806317f4f0ab1461122b5780633410fe6e1461045e5780633bbed4a0146111c15780633ff013ea14611186578063480836c514610c535780635a3e251f14610c185780635c9302c914610bce57806361d027b314610ba557806366d003ac14610b7c5780636fa497ab14610b33578063715018a614610ad65780637417bd1014610aac57806375bb7e4914610a8957806378e9792514610a4e5780637c817fd214610a1357806385f2aef2146109ea5780638da5cb5b146109c1578063907af6c01461097c578063999b93af146109375780639b642de1146107495780639fc6183514610705578063aad3ec96146104fe578063bd134ce4146104e1578063be93b8db146104c3578063c1e7af35146104a7578063c59b1f3c14610480578063d5861d9114610463578063db45810e1461045e578063dc9d1a3914610437578063dd481bf21461041b578063eac989f81461033a578063f0f44260146102be578063f2f4eb26146102795763f2fde38b146101ac57600080fd5b34610276576020366003190112610276576101c56112d7565b6101cd61140e565b6001600160a01b0390811690811561022257600154826bffffffffffffffffffffffff60a01b821617600155167f8be0079c531659141344cd1fd0a4f28419497f9722a3daafe3b4186f6b6457e0600080a380f35b60405162461bcd60e51b815260206004820152602660248201527f4f776e61626c653a206e6577206f776e657220697320746865207a65726f206160448201526564647265737360d01b6064820152608490fd5b80fd5b50346102765780600319360112610276576040517f00000000000000000000000000000000000000000000000000000000000000006001600160a01b03168152602090f35b5034610276576020366003190112610276576102d86112d7565b6102e061140e565b6001600160a01b0316801561032857600380546001600160a01b031916821790557f733974f3e93d9740040671ca71cbb481b0c9a5451f1806cc3b4370707e3500f98280a280f35b604051630ba70fd360e41b8152600490fd5b5034610276578060031936011261027657604051908060085461035c81611353565b808552916001918083169081156103f15750600114610396575b610392856103868187038261138d565b604051918291826113c5565b0390f35b9250600883527ff3f7a9fe364faab93b216da50a3214154f22a0a2b415b23a84c8169e8b636ee35b8284106103d957505050810160200161038682610392610376565b805460208587018101919091529093019281016103be565b8695506103929693506020925061038694915060ff191682840152151560051b8201019293610376565b5034610276578060031936011261027657602060405160078152f35b5034610276576020366003190112610276576020610456600435611768565b604051908152f35b611308565b503461027657806003193601126102765760206040516101908152f35b503461027657604036600319011261027657602061045661049f6112f2565b6004356117e7565b5034610276578060031936011261027657602060405160648152f35b50346102765780600319360112610276576020604051620151808152f35b503461027657806003193601126102765760206040516113888152f35b5034610276576040366003190112610276576105186112d7565b6024356105236114ea565b6001600160a01b0382811692909190831561032857620151806105667f0000000000000000000000000000000000000000000000000000000000000000426114af565b048210156106f3578185526020906007825260408620858752825260ff6040872054166106e15782865260068252604086208587528252604086205480156106cf576105d18791858352600585526105cc6040842054916105c688611768565b90611466565b61148f565b84825260078452604080832088845285528220805460ff19166001179055947f00000000000000000000000000000000000000000000000000000000000000001691823b156106cb576040516340c10f1960e01b81526001600160a01b0391909116600482015260248101869052918290604490829084905af180156106c05761068d575b50916040917f06acf4e673fb0690197d247163b365c613c5626645da0abd423654d509978e57938351928352820152a26001815580f35b67ffffffffffffffff81969296116106ac576040908152909490610656565b634e487b7160e01b82526041600452602482fd5b6040513d88823e3d90fd5b5080fd5b6040516301fcf3ab60e51b8152600490fd5b604051636a85d37760e01b8152600490fd5b604051636546891f60e01b8152600490fd5b50346102765760403660031901126102765760406020916107246112f2565b6004358252600684528282206001600160a01b03909116825283522054604051908152f35b503461027657602090816003193601126102765767ffffffffffffffff916004358381116109335761077f903690600401611325565b91909361078a61140e565b821161091f5761079b600854611353565b601f81116108bd575b508293601f831160011461081857610807908385967feef7e3f902ebc1e4fc32c5d0f5ff4bed181b32518904a37d9a46c75aa73b9ace969161080d575b508460011b906000198660031b1c1916176008555b6040519383859485528401916114c9565b0390a180f35b9050810135386107e1565b600884527ff3f7a9fe364faab93b216da50a3214154f22a0a2b415b23a84c8169e8b636ee3601f198416855b8181106108a65750907feef7e3f902ebc1e4fc32c5d0f5ff4bed181b32518904a37d9a46c75aa73b9ace95968561080794931061088c575b5050600184811b016008556107f6565b820135600019600387901b60f8161c19169055388061087c565b838801358355968401966001909201918401610844565b600884527ff3f7a9fe364faab93b216da50a3214154f22a0a2b415b23a84c8169e8b636ee3601f840160051c810191838510610915575b601f0160051c01905b81811061090a57506107a4565b8481556001016108fd565b90915081906108f4565b634e487b7160e01b83526041600452602483fd5b8280fd5b50346102765780600319360112610276576040517f00000000000000000000000000000000000000000000000000000000000000006001600160a01b03168152602090f35b50346102765780600319360112610276576040517f00000000000000000000000000000000000000000000000000000000000000006001600160a01b03168152602090f35b50346102765780600319360112610276576001546040516001600160a01b039091168152602090f35b50346102765780600319360112610276576004546040516001600160a01b039091168152602090f35b503461027657806003193601126102765760206040517f00000000000000000000000000000000000000000000000000000000000000008152f35b503461027657806003193601126102765760206040517f00000000000000000000000000000000000000000000000000000000000000008152f35b50346102765780600319360112610276576020604051670de0b6b3a76400008152f35b50346102765760203660031901126102765760406020916004358152600583522054604051908152f35b5034610276578060031936011261027657610aef61140e565b600180546001600160a01b0319811690915581906001600160a01b03167f8be0079c531659141344cd1fd0a4f28419497f9722a3daafe3b4186f6b6457e08280a380f35b50346102765760403660031901126102765760ff6040602092610b546112f2565b6004358252600785528282206001600160a01b03909116825284522054604051911615158152f35b50346102765780600319360112610276576002546040516001600160a01b039091168152602090f35b50346102765780600319360112610276576003546040516001600160a01b039091168152602090f35b5034610276578060031936011261027657602062015180610c0f7f0000000000000000000000000000000000000000000000000000000000000000426114af565b04604051908152f35b503461027657806003193601126102765760206040517f00000000000000000000000000000000000000000000000000000000000000008152f35b503461027657606036600319011261027657610c6d6112d7565b67ffffffffffffffff60443581811161118257610c8e903690600401611325565b919092610c996114ea565b6001600160a01b0316928315611170576127106024351061115e576002546001600160a01b03161561114c5762015180610cf37f0000000000000000000000000000000000000000000000000000000000000000426114af565b0491604051906323b872dd60e01b602083015233602483015230604483015260243560648301526064825260a08201908282109082111761113857604052610d64907f00000000000000000000000000000000000000000000000000000000000000006001600160a01b0316611583565b60405163cce516b760e01b81526020816004817f00000000000000000000000000000000000000000000000000000000000000006001600160a01b03165afa9081156106c05786916110f2575b50611388906024358015908084020483148117156110de576004546001600160a01b0316156110d7576024356101908181029182041482171561108b576127109004905b6001600160a01b0383161561109f57606460243502906024358204606414171561108b57928594928580937f2420081da1aecd55f4422861dfc5455fa4a372abb25d2fcb0d795112fd3276cd999861271080610f939904955b6024350204610ea8610e6f87610e6a86610e6a866024356114af565b6114af565b6002549092906001600160a01b03908116907f000000000000000000000000000000000000000000000000000000000000000016611540565b600354610ee49082906001600160a01b03908116907f000000000000000000000000000000000000000000000000000000000000000016611540565b6003546040519182526001600160a01b0316907f17cb68cea5e25b170bee80566b04df746ed5b3f5f94ddd8a7635a086b93aa78b90602090a38061100f575b505081610f9d575b50508752600560205260408720610f4560243582546114bc565b905582875260066020526040872086885260205260408720610f6a60243582546114bc565b9055604051938493338552602435602086015260408501526080606085015260808401916114c9565b0390a26001815580f35b7f23265cbc6cbc433f1db176a495066e11d20658741dc6d52f0e9a9f73fdfc92f490602090610ff684827f00000000000000000000000000000000000000000000000000000000000000006001600160a01b0316611540565b6040519384526001600160a01b031692a3823880610f2b565b60045461104b9082906001600160a01b03908116907f000000000000000000000000000000000000000000000000000000000000000016611540565b6004546040519182526001600160a01b0316907feb2e3ae39592489cb74a02e4342b314950c23208f6a8a1d01e17ec7fbe3c228590602090a38238610f23565b634e487b7160e01b89526011600452602489fd5b5093610f9392819492827f2420081da1aecd55f4422861dfc5455fa4a372abb25d2fcb0d795112fd3276cd9897816127108d95610e4e565b8790610df5565b634e487b7160e01b88526011600452602488fd5b90506020813d602011611130575b8161110d6020938361138d565b8101031261112c57516001600160a01b038116810361112c5738610db1565b8580fd5b3d9150611100565b634e487b7160e01b87526041600452602487fd5b604051630e4a171360e01b8152600490fd5b6040516367c3520760e11b8152600490fd5b6040516368eb7a8f60e11b8152600490fd5b8380fd5b503461027657806003193601126102765760206040517f00000000000000000000000000000000000000000000000000000000000000008152f35b5034610276576020366003190112610276576111db6112d7565b6111e361140e565b6001600160a01b0316801561032857600280546001600160a01b031916821790557fccf3fbe1cfbaf4340049a747fa960e401ea6eb5bdf8af07f8cae29baeacaa0ef8280a280f35b5034610276578060031936011261027657602060405161016d8152f35b5034610276576020366003190112610276576112626112d7565b61126a61140e565b600480546001600160a01b0319166001600160a01b039290921691821790557fd0fb66531bb950a999ffd739248f0badcf9df003c7daeb593287f07bd864e8338280a280f35b9050346106cb57816003193601126106cb57806c0c9f2c9cd04674edea4000000060209252f35b600435906001600160a01b03821682036112ed57565b600080fd5b602435906001600160a01b03821682036112ed57565b346112ed5760003660031901126112ed5760206040516127108152f35b9181601f840112156112ed5782359167ffffffffffffffff83116112ed57602083818601950101116112ed57565b90600182811c92168015611383575b602083101461136d57565b634e487b7160e01b600052602260045260246000fd5b91607f1691611362565b90601f8019910116810190811067ffffffffffffffff8211176113af57604052565b634e487b7160e01b600052604160045260246000fd5b6020808252825181830181905290939260005b8281106113fa57505060409293506000838284010152601f8019910116010190565b8181018601518482016040015285016113d8565b6001546001600160a01b0316330361142257565b606460405162461bcd60e51b815260206004820152602060248201527f4f776e61626c653a2063616c6c6572206973206e6f7420746865206f776e65726044820152fd5b8181029291811591840414171561147957565b634e487b7160e01b600052601160045260246000fd5b8115611499570490565b634e487b7160e01b600052601260045260246000fd5b9190820391821161147957565b9190820180921161147957565b908060209392818452848401376000828201840152601f01601f1916010190565b6002600054146114fb576002600055565b60405162461bcd60e51b815260206004820152601f60248201527f5265656e7472616e637947756172643a207265656e7472616e742063616c6c006044820152606490fd5b60405163a9059cbb60e01b60208201526001600160a01b039290921660248301526044808301939093529181526115819161157c60648361138d565b611583565b565b60018060a01b0316906040516040810167ffffffffffffffff90828110828211176113af576040526020938483527f5361666545524332303a206c6f772d6c6576656c2063616c6c206661696c6564858401526000808587829751910182855af1903d156116c8573d9283116116b4579061161e9392916040519261161188601f19601f840116018561138d565b83523d868885013e6116d3565b805191821591848315611690575b5050509050156116395750565b6084906040519062461bcd60e51b82526004820152602a60248201527f5361666545524332303a204552433230206f7065726174696f6e20646964206e6044820152691bdd081cdd58d8d9595960b21b6064820152fd5b9193818094500103126106cb5782015190811515820361027657508038808461162c565b634e487b7160e01b85526041600452602485fd5b9061161e9392506060915b9192901561173557508151156116e7575090565b3b156116f05790565b60405162461bcd60e51b815260206004820152601d60248201527f416464726573733a2063616c6c20746f206e6f6e2d636f6e74726163740000006044820152606490fd5b8251909150156117485750805190602001fd5b60405162461bcd60e51b815290819061176490600483016113c5565b0390fd5b611793907f00000000000000000000000000000000000000000000000000000000000000009061148f565b7f0000000000000000000000000000000000000000000000000000000000000000901c7f00000000000000000000000000000000000000000000000000000000000000008082106117e2575090565b905090565b620151806118157f0000000000000000000000000000000000000000000000000000000000000000426114af565b0481101561188a576000918183526007602052604083209060018060a01b03169081845260205260ff6040842054166118855781835260066020526040832090835260205260408220548015611885576105cc906105c66040858561188297526005602052205493611768565b90565b505090565b505060009056fea2646970667358221220d1c63a87adf1d08a067adb6b7edcca2ece309c29c95f114685f45d075b97b1f164736f6c63430008130033",
  "linkReferences": {},
  "deployedLinkReferences": {}
}