{
  "_format": "hh-sol-artifact-1",
  "contractName": "FundCore",
  "sourceName": "contracts/rigs/fund/FundCore.sol",
  "abi": [
    {
      "inputs": [
        {
          "internalType": "address",
          "name": "_registry",
          "type": "address"
        },
        {
          "internalType": "address",
          "name": "_usdcToken",
          "type": "address"
        },
        {
          "internalType": "address",
          "name": "_uniswapV2Factory",
          "type": "address"
        },
        {
          "internalType": "address",
          "name": "_uniswapV2Router",
          "type": "address"
        },
        {
          "internalType": "address",
          "name": "_unitFactory",
          "type": "address"
        },
        {
          "internalType": "address",
          "name": "_fundRigFactory",
          "type": "address"
        },
        {
          "internalType": "address",
          "name": "_auctionFactory",
          "type": "address"
        },
        {
          "internalType": "address",
          "name": "_protocolFeeAddress",
          "type": "address"
        },
        {
          "internalType": "uint256",
          "name": "_minUsdcForLaunch",
          "type": "uint256"
        }
      ],
      "stateMutability": "nonpayable",
      "type": "constructor"
    },
    {
      "inputs": [],
      "name": "FundCore__AuctionEpochPeriodOutOfRange",
      "type": "error"
    },
    {
      "inputs": [],
      "name": "FundCore__AuctionInitPriceOutOfRange",
      "type": "error"
    },
    {
      "inputs": [],
      "name": "FundCore__AuctionMinInitPriceOutOfRange",
      "type": "error"
    },
    {
      "inputs": [],
      "name": "FundCore__AuctionPriceMultiplierOutOfRange",
      "type": "error"
    },
    {
      "inputs": [],
      "name": "FundCore__EmptyTokenName",
      "type": "error"
    },
    {
      "inputs": [],
      "name": "FundCore__EmptyTokenSymbol",
      "type": "error"
    },
    {
      "inputs": [],
      "name": "FundCore__HalvingPeriodOutOfRange",
      "type": "error"
    },
    {
      "inputs": [],
      "name": "FundCore__InitialEmissionOutOfRange",
      "type": "error"
    },
    {
      "inputs": [],
      "name": "FundCore__InsufficientUsdc",
      "type": "error"
    },
    {
      "inputs": [],
      "name": "FundCore__MinEmissionOutOfRange",
      "type": "error"
    },
    {
      "inputs": [],
      "name": "FundCore__ZeroAddress",
      "type": "error"
    },
    {
      "inputs": [],
      "name": "FundCore__ZeroLauncher",
      "type": "error"
    },
    {
      "inputs": [],
      "name": "FundCore__ZeroQuoteToken",
      "type": "error"
    },
    {
      "inputs": [],
      "name": "FundCore__ZeroRecipient",
      "type": "error"
    },
    {
      "inputs": [],
      "name": "FundCore__ZeroUnitAmount",
      "type": "error"
    },
    {
      "anonymous": false,
      "inputs": [
        {
          "indexed": true,
          "internalType": "address",
          "name": "launcher",
          "type": "address"
        },
        {
          "indexed": true,
          "internalType": "address",
          "name": "rig",
          "type": "address"
        },
        {
          "indexed": true,
          "internalType": "address",
          "name": "unit",
          "type": "address"
        },
        {
          "indexed": false,
          "internalType": "address",
          "name": "recipient",
          "type": "address"
        },
        {
          "indexed": false,
          "internalType": "address",
          "name": "auction",
          "type": "address"
        },
        {
          "indexed": false,
          "internalType": "address",
          "name": "lpToken",
          "type": "address"
        },
        {
          "indexed": false,
          "internalType": "address",
          "name": "quoteToken",
          "type": "address"
        },
        {
          "indexed": false,
          "internalType": "string",
          "name": "tokenName",
          "type": "string"
        },
        {
          "indexed": false,
          "internalType": "string",
          "name": "tokenSymbol",
          "type": "string"
        },
        {
          "indexed": false,
          "internalType": "uint256",
          "name": "usdcAmount",
          "type": "uint256"
        },
        {
          "indexed": false,
          "internalType": "uint256",
          "name": "unitAmount",
          "type": "uint256"
        },
        {
          "indexed": false,
          "internalType": "uint256",
          "name": "initialEmission",
          "type": "uint256"
        },
        {
          "indexed": false,
          "internalType": "uint256",
          "name": "minEmission",
          "type": "uint256"
        },
        {
          "indexed": false,
          "internalType": "uint256",
          "name": "halvingPeriod",
          "type": "uint256"
        },
        {
          "indexed": false,
          "internalType": "uint256",
          "name": "auctionInitPrice",
          "type": "uint256"
        },
        {
          "indexed": false,
          "internalType": "uint256",
          "name": "auctionEpochPeriod",
          "type": "uint256"
        },
        {
          "indexed": false,
          "internalType": "uint256",
          "name": "auctionPriceMultiplier",
          "type": "uint256"
        },
        {
          "indexed": false,
          "internalType": "uint256",
          "name": "auctionMinInitPrice",
          "type": "uint256"
        }
      ],
      "name": "FundCore__Launched",
      "type": "event"
    },
    {
      "anonymous": false,
      "inputs": [
        {
          "indexed": false,
          "internalType": "uint256",
          "name": "minUsdcForLaunch",
          "type": "uint256"
        }
      ],
      "name": "FundCore__MinUsdcForLaunchSet",
      "type": "event"
    },
    {
      "anonymous": false,
      "inputs": [
        {
          "indexed": false,
          "internalType": "address",
          "name": "protocolFeeAddress",
          "type": "address"
        }
      ],
      "name": "FundCore__ProtocolFeeAddressSet",
      "type": "event"
    },
    {
      "anonymous": false,
      "inputs": [
        {
          "indexed": true,
          "internalType": "address",
          "name": "previousOwner",
          "type": "address"
        },
        {
          "indexed": true,
          "internalType": "address",
          "name": "newOwner",
          "type": "address"
        }
      ],
      "name": "OwnershipTransferred",
      "type": "event"
    },
    {
      "inputs": [],
      "name": "AUCTION_ABS_MAX_INIT_PRICE",
      "outputs": [
        {
          "internalType": "uint256",
          "name": "",
          "type": "uint256"
        }
      ],
      "stateMutability": "view",
      "type": "function"
    },
    {
      "inputs": [],
      "name": "AUCTION_ABS_MIN_INIT_PRICE",
      "outputs": [
        {
          "internalType": "uint256",
          "name": "",
          "type": "uint256"
        }
      ],
      "stateMutability": "view",
      "type": "function"
    },
    {
      "inputs": [],
      "name": "AUCTION_MAX_EPOCH_PERIOD",
      "outputs": [
        {
          "internalType": "uint256",
          "name": "",
          "type": "uint256"
        }
      ],
      "stateMutability": "view",
      "type": "function"
    },
    {
      "inputs": [],
      "name": "AUCTION_MAX_PRICE_MULTIPLIER",
      "outputs": [
        {
          "internalType": "uint256",
          "name": "",
          "type": "uint256"
        }
      ],
      "stateMutability": "view",
      "type": "function"
    },
    {
      "inputs": [],
      "name": "AUCTION_MIN_EPOCH_PERIOD",
      "outputs": [
        {
          "internalType": "uint256",
          "name": "",
          "type": "uint256"
        }
      ],
      "stateMutability": "view",
      "type": "function"
    },
    {
      "inputs": [],
      "name": "AUCTION_MIN_PRICE_MULTIPLIER",
      "outputs": [
        {
          "internalType": "uint256",
          "name": "",
          "type": "uint256"
        }
      ],
      "stateMutability": "view",
      "type": "function"
    },
    {
      "inputs": [],
      "name": "DEAD_ADDRESS",
      "outputs": [
        {
          "internalType": "address",
          "name": "",
          "type": "address"
        }
      ],
      "stateMutability": "view",
      "type": "function"
    },
    {
      "inputs": [],
      "name": "MAX_HALVING_PERIOD",
      "outputs": [
        {
          "internalType": "uint256",
          "name": "",
          "type": "uint256"
        }
      ],
      "stateMutability": "view",
      "type": "function"
    },
    {
      "inputs": [],
      "name": "MAX_INITIAL_EMISSION",
      "outputs": [
        {
          "internalType": "uint256",
          "name": "",
          "type": "uint256"
        }
      ],
      "stateMutability": "view",
      "type": "function"
    },
    {
      "inputs": [],
      "name": "MIN_HALVING_PERIOD",
      "outputs": [
        {
          "internalType": "uint256",
          "name": "",
          "type": "uint256"
        }
      ],
      "stateMutability": "view",
      "type": "function"
    },
    {
      "inputs": [],
      "name": "MIN_INITIAL_EMISSION",
      "outputs": [
        {
          "internalType": "uint256",
          "name": "",
          "type": "uint256"
        }
      ],
      "stateMutability": "view",
      "type": "function"
    },
    {
      "inputs": [],
      "name": "RIG_TYPE",
      "outputs": [
        {
          "internalType": "string",
          "name": "",
          "type": "string"
        }
      ],
      "stateMutability": "view",
      "type": "function"
    },
    {
      "inputs": [],
      "name": "auctionFactory",
      "outputs": [
        {
          "internalType": "address",
          "name": "",
          "type": "address"
        }
      ],
      "stateMutability": "view",
      "type": "function"
    },
    {
      "inputs": [
        {
          "internalType": "uint256",
          "name": "",
          "type": "uint256"
        }
      ],
      "name": "deployedRigs",
      "outputs": [
        {
          "internalType": "address",
          "name": "",
          "type": "address"
        }
      ],
      "stateMutability": "view",
      "type": "function"
    },
    {
      "inputs": [],
      "name": "deployedRigsLength",
      "outputs": [
        {
          "internalType": "uint256",
          "name": "",
          "type": "uint256"
        }
      ],
      "stateMutability": "view",
      "type": "function"
    },
    {
      "inputs": [],
      "name": "usdcToken",
      "outputs": [
        {
          "internalType": "address",
          "name": "",
          "type": "address"
        }
      ],
      "stateMutability": "view",
      "type": "function"
    },
    {
      "inputs": [],
      "name": "fundRigFactory",
      "outputs": [
        {
          "internalType": "address",
          "name": "",
          "type": "address"
        }
      ],
      "stateMutability": "view",
      "type": "function"
    },
    {
      "inputs": [
        {
          "internalType": "address",
          "name": "",
          "type": "address"
        }
      ],
      "name": "isDeployedRig",
      "outputs": [
        {
          "internalType": "bool",
          "name": "",
          "type": "bool"
        }
      ],
      "stateMutability": "view",
      "type": "function"
    },
    {
      "inputs": [
        {
          "components": [
            {
              "internalType": "address",
              "name": "launcher",
              "type": "address"
            },
            {
              "internalType": "address",
              "name": "quoteToken",
              "type": "address"
            },
            {
              "internalType": "address",
              "name": "recipient",
              "type": "address"
            },
            {
              "internalType": "string",
              "name": "tokenName",
              "type": "string"
            },
            {
              "internalType": "string",
              "name": "tokenSymbol",
              "type": "string"
            },
            {
              "internalType": "uint256",
              "name": "usdcAmount",
              "type": "uint256"
            },
            {
              "internalType": "uint256",
              "name": "unitAmount",
              "type": "uint256"
            },
            {
              "internalType": "uint256",
              "name": "initialEmission",
              "type": "uint256"
            },
            {
              "internalType": "uint256",
              "name": "minEmission",
              "type": "uint256"
            },
            {
              "internalType": "uint256",
              "name": "halvingPeriod",
              "type": "uint256"
            },
            {
              "internalType": "uint256",
              "name": "auctionInitPrice",
              "type": "uint256"
            },
            {
              "internalType": "uint256",
              "name": "auctionEpochPeriod",
              "type": "uint256"
            },
            {
              "internalType": "uint256",
              "name": "auctionPriceMultiplier",
              "type": "uint256"
            },
            {
              "internalType": "uint256",
              "name": "auctionMinInitPrice",
              "type": "uint256"
            }
          ],
          "internalType": "struct FundCore.LaunchParams",
          "name": "params",
          "type": "tuple"
        }
      ],
      "name": "launch",
      "outputs": [
        {
          "internalType": "address",
          "name": "unit",
          "type": "address"
        },
        {
          "internalType": "address",
          "name": "rig",
          "type": "address"
        },
        {
          "internalType": "address",
          "name": "auction",
          "type": "address"
        },
        {
          "internalType": "address",
          "name": "lpToken",
          "type": "address"
        }
      ],
      "stateMutability": "nonpayable",
      "type": "function"
    },
    {
      "inputs": [],
      "name": "minUsdcForLaunch",
      "outputs": [
        {
          "internalType": "uint256",
          "name": "",
          "type": "uint256"
        }
      ],
      "stateMutability": "view",
      "type": "function"
    },
    {
      "inputs": [],
      "name": "owner",
      "outputs": [
        {
          "internalType": "address",
          "name": "",
          "type": "address"
        }
      ],
      "stateMutability": "view",
      "type": "function"
    },
    {
      "inputs": [],
      "name": "protocolFeeAddress",
      "outputs": [
        {
          "internalType": "address",
          "name": "",
          "type": "address"
        }
      ],
      "stateMutability": "view",
      "type": "function"
    },
    {
      "inputs": [],
      "name": "registry",
      "outputs": [
        {
          "internalType": "address",
          "name": "",
          "type": "address"
        }
      ],
      "stateMutability": "view",
      "type": "function"
    },
    {
      "inputs": [],
      "name": "renounceOwnership",
      "outputs": [],
      "stateMutability": "nonpayable",
      "type": "function"
    },
    {
      "inputs": [
        {
          "internalType": "address",
          "name": "",
          "type": "address"
        }
      ],
      "name": "rigToAuction",
      "outputs": [
        {
          "internalType": "address",
          "name": "",
          "type": "address"
        }
      ],
      "stateMutability": "view",
      "type": "function"
    },
    {
      "inputs": [
        {
          "internalType": "address",
          "name": "",
          "type": "address"
        }
      ],
      "name": "rigToLP",
      "outputs": [
        {
          "internalType": "address",
          "name": "",
          "type": "address"
        }
      ],
      "stateMutability": "view",
      "type": "function"
    },
    {
      "inputs": [
        {
          "internalType": "address",
          "name": "",
          "type": "address"
        }
      ],
      "name": "rigToLauncher",
      "outputs": [
        {
          "internalType": "address",
          "name": "",
          "type": "address"
        }
      ],
      "stateMutability": "view",
      "type": "function"
    },
    {
      "inputs": [
        {
          "internalType": "address",
          "name": "",
          "type": "address"
        }
      ],
      "name": "rigToQuote",
      "outputs": [
        {
          "internalType": "address",
          "name": "",
          "type": "address"
        }
      ],
      "stateMutability": "view",
      "type": "function"
    },
    {
      "inputs": [
        {
          "internalType": "address",
          "name": "",
          "type": "address"
        }
      ],
      "name": "rigToRecipient",
      "outputs": [
        {
          "internalType": "address",
          "name": "",
          "type": "address"
        }
      ],
      "stateMutability": "view",
      "type": "function"
    },
    {
      "inputs": [
        {
          "internalType": "address",
          "name": "",
          "type": "address"
        }
      ],
      "name": "rigToUnit",
      "outputs": [
        {
          "internalType": "address",
          "name": "",
          "type": "address"
        }
      ],
      "stateMutability": "view",
      "type": "function"
    },
    {
      "inputs": [
        {
          "internalType": "uint256",
          "name": "_minUsdcForLaunch",
          "type": "uint256"
        }
      ],
      "name": "setMinUsdcForLaunch",
      "outputs": [],
      "stateMutability": "nonpayable",
      "type": "function"
    },
    {
      "inputs": [
        {
          "internalType": "address",
          "name": "_protocolFeeAddress",
          "type": "address"
        }
      ],
      "name": "setProtocolFeeAddress",
      "outputs": [],
      "stateMutability": "nonpayable",
      "type": "function"
    },
    {
      "inputs": [
        {
          "internalType": "address",
          "name": "newOwner",
          "type": "address"
        }
      ],
      "name": "transferOwnership",
      "outputs": [],
      "stateMutability": "nonpayable",
      "type": "function"
    },
    {
      "inputs": [],
      "name": "uniswapV2Factory",
      "outputs": [
        {
          "internalType": "address",
          "name": "",
          "type": "address"
        }
      ],
      "stateMutability": "view",
      "type": "function"
    },
    {
      "inputs": [],
      "name": "uniswapV2Router",
      "outputs": [
        {
          "internalType": "address",
          "name": "",
          "type": "address"
        }
      ],
      "stateMutability": "view",
      "type": "function"
    },
    {
      "inputs": [],
      "name": "unitFactory",
      "outputs": [
        {
          "internalType": "address",
          "name": "",
          "type": "address"
        }
      ],
      "stateMutability": "view",
      "type": "function"
    }
  ],
  "bytecode": "0x6101603462000275576200209738819003601f8101601f191683016001600160401b038111848210176200027a57839282916040528339610120918291810103126200027557620000508262000290565b6200005e6020840162000290565b906200006d6040850162000290565b906200007c6060860162000290565b926200008b6080870162000290565b936200009a60a0880162000290565b620000a860c0890162000290565b95620000b760e08a0162000290565b92610100809a0151966000549560018060a01b031997338989161760005560405160018060a01b0398893391167f8be0079c531659141344cd1fd0a4f28419497f9722a3daafe3b4186f6b6457e0600080a3600180558882161580156200026a575b80156200025f575b801562000254575b801562000249575b80156200023e575b801562000233575b62000224575060805260a05260c05260e052885286526101409485521690600254161760025560035560405191611df19384620002a68539608051848181610c0101528181610c8901526114bb015260a0518481816104f8015281816106a8015281816107020152818161075c01528181610818015261170d015260c05184818161084a015261164e015260e05184818161061a0152818161065401528181610687015281816106e1015281816107c8015261178d01525183818161058c01526112960152518281816109fa01526113dc015251818181610925015261135c0152f35b63052ee5e160e11b8152600490fd5b50888c161562000141565b508887161562000139565b508886161562000131565b508885161562000129565b508884161562000121565b508883161562000119565b600080fd5b634e487b7160e01b600052604160045260246000fd5b51906001600160a01b0382168203620002755756fe608080604052600436101561001357600080fd5b600090813560e01c908162f973c61461181e575080630524c46a146117df5780630986e40f146117bc5780631694505e1461177757806317f4f0ab1461175a57806332359f6d1461173c57806332a8ad99146116f757806335239f94146116b85780633635bdfd1461169a5780634e6fd6c41461167d57806359d0f71314611638578063699b22b1146116155780636b7b9112146115a6578063715018a61461154c57806375bb7e49146115295780637975e2a1146114ea5780637b103999146114a5578063832c0e5f1461147157806383e9d76b146114325780638da5cb5b1461140b578063a11f22cc146113c6578063a3fcb57a146113a9578063a8c493c31461138b578063abf4fde414611346578063ad3857fb14611327578063b1d1e6f7146112e8578063ba0d1a5e146112c5578063bbba90e214611280578063cce516b714611257578063d21bde9314611215578063d7a8c475146111d1578063dd481bf2146111b5578063e9d1b1261461030c578063eb081747146102cd578063f2fde38b146101fc5763f9e6e6e7146101ac57600080fd5b346101f95760203660031901126101f9577f6caa74bbbfe1deedcfabd0702d1b5b5abcb72f85793ef57f9c5d9728abf2d30460206004356101eb611976565b80600355604051908152a180f35b80fd5b50346101f95760203660031901126101f9576004356001600160a01b03818116918290036102c95761022c611976565b811561027557600054826bffffffffffffffffffffffff60a01b821617600055167f8be0079c531659141344cd1fd0a4f28419497f9722a3daafe3b4186f6b6457e0600080a380f35b60405162461bcd60e51b815260206004820152602660248201527f4f776e61626c653a206e6577206f776e657220697320746865207a65726f206160448201526564647265737360d01b6064820152608490fd5b8280fd5b50346101f95760203660031901126101f9576001600160a01b03600435818116908190036102c957826040916020945260068452205416604051908152f35b50346101f95760203660031901126101f95767ffffffffffffffff600435116101f9576101c0600435360360031901126101f9576002600154146111705760026001556001600160a01b036103646004803501611a46565b161561115e576001600160a01b03610380600435602401611a46565b161561114c576001600160a01b0361039c600435604401611a46565b161561113a5760035460a4600435013510611128576103c56064600435016004356004016119ce565b905015611116576103e06084600435016004356004016119ce565b9050156111045760c46004350135156110f257670de0b6b3a764000060e460043501351080156110d6575b6110c45761010460043501351580156110ae575b61109c576007610124600435013510801561108a575b61107857610e106101646004350135108015611064575b61105257670f43fc2c04ee0000610184600435013510801561103a575b61102857620f42406101a46004350135108015611011575b610fff576101a460043501356101446004350135108015610fe8575b610fd657604051906323b872dd60e01b602083015233602483015230604483015260a460043501356064830152606482528160a081011067ffffffffffffffff60a084011117610fc25760a0820160405261057591610525907f00000000000000000000000000000000000000000000000000000000000000006001600160a01b0316611bda565b602061053b6064600435016004356004016119ce565b6105876105526084600435016004356004016119ce565b604051978895869563b548848760e01b8752604060048801526044870191611a25565b84810360031901602486015291611a25565b0381847f00000000000000000000000000000000000000000000000000000000000000006001600160a01b03165af1918215610fb5578192610f94575b506001600160a01b0382163b156101f9576040516340c10f1960e01b8152306004808301919091523560c4013560248201528181604481836001600160a01b0388165af18015610e8957610f85575b50906106487f00000000000000000000000000000000000000000000000000000000000000006001600160a01b038316611a5a565b61068260043560c401357f00000000000000000000000000000000000000000000000000000000000000006001600160a01b038416611a9c565b6106d57f00000000000000000000000000000000000000000000000000000000000000007f00000000000000000000000000000000000000000000000000000000000000006001600160a01b0316611a5a565b61072f60043560a401357f00000000000000000000000000000000000000000000000000000000000000007f00000000000000000000000000000000000000000000000000000000000000006001600160a01b0316611a9c565b6104b042014211610f715760405162e8e33760e81b81526001600160a01b038281166004808401919091527f00000000000000000000000000000000000000000000000000000000000000008216602484015260c49035818101356044850181905260a4918201356064860181905260848601919091529084015230908301526104b0420160e4830152606090829061010490829087907f0000000000000000000000000000000000000000000000000000000000000000165af1908115610f66578391610f31575b5060405163e6a4390560e01b81526001600160a01b0380841660048301527f000000000000000000000000000000000000000000000000000000000000000016602482015290602082806044810103817f00000000000000000000000000000000000000000000000000000000000000006001600160a01b03165afa918215610f01578492610f0c575b506108c1906040519063a9059cbb60e01b602083015261dead60248301526044820152604481526108b28161188b565b6001600160a01b038316611bda565b604051633e25ba8f60e21b81526101446004803591820135908301526001600160a01b03838116602484015261dead6044840152610164820135606484015261018482013560848401526101a49091013560a4830152602090829060c490829088907f0000000000000000000000000000000000000000000000000000000000000000165af1908115610f01578491610ee2575b50610964602460043501611a46565b610972604460043501611a46565b610980600435600401611a46565b604051633b6e6e5360e01b81526001600160a01b0393841660048083019190915287851660248301529284166044820152848416606482015290831660848201523060a4820152903560e48181013560c48401526101048083013591840191909152610124918201359083015290916020918391829089907f0000000000000000000000000000000000000000000000000000000000000000165af1908115610ed7578591610ea8575b506001600160a01b0384163b15610e4e5760405163588d95c960e11b81526001600160a01b03828116600483015286919082908290602490829084908b165af18015610e8957610e94575b50610a84600435600401611a46565b6001600160a01b0383163b15610e5d5760405163f2fde38b60e01b81526001600160a01b03918216600482015290829082906024908290849088165af18015610e8957610e75575b505060045468010000000000000000811015610e6157806001610af29201600455611929565b81546001600160a01b0384811660039390931b83811b91901b19909116179091558552600560205260408520805460ff19166001179055610b366004803501611a46565b60066020908152604080882080546001600160a01b03199081166001600160a01b039586161790915560078352818920805482168986161790556008835281892080548216878616179055600990925287208054821692861692909217909155610ba4600435602401611a46565b600a602052604087209060018060a01b031682825416179055610bcb604460043501611a46565b600b6020526040872080549092166001600160a01b03909116179055610bef6118c9565b85610bfe600435600401611a46565b917f00000000000000000000000000000000000000000000000000000000000000006001600160a01b03163b15610e5d57604051631d3317b360e31b81526001600160a01b038516600482015260806024820152928391829190610c669060848401906118e9565b6001600160a01b038a8116604485015291821660648401529190910390829084907f0000000000000000000000000000000000000000000000000000000000000000165af18015610e5257610e3a575b5060809450610cc9600435600401611a46565b610cd7604460043501611a46565b90610d65610ce9602460043501611a46565b610d57610d006064600435016004356004016119ce565b9190610d166084600435016004356004016119ce565b604080516001600160a01b039a8b1681528c8b1660208201528d8b16918101919091529890951660608901526101e08d890181905290949390880191611a25565b9185830360a0870152611a25565b60043560a481013560c085015260c481013560e085015260e48101356101008501526101048101356101208501526101248101356101408501526101448101356101608501526101648101356101808501526101848101356101a08501526101a401356101c08401526001600160a01b038781169385821693909116917f90235d7796a4b5c30f9ba84a7833a5e5d22fa1e8983130d9707a371b79ad3e3f919081900390a460018055604080516001600160a01b03958616815291851660208301529184169181019190915291166060820152f35b610e448691611845565b610e4e5784610cb6565b8480fd5b6040513d88823e3d90fd5b5080fd5b634e487b7160e01b86526041600452602486fd5b610e7e90611845565b610e4e578438610acc565b6040513d84823e3d90fd5b610e9d90611845565b610e4e578438610a75565b610eca915060203d602011610ed0575b610ec281836118a7565b810190611a06565b38610a2a565b503d610eb8565b6040513d87823e3d90fd5b610efb915060203d602011610ed057610ec281836118a7565b38610955565b6040513d86823e3d90fd5b6108c1919250610f2a9060203d602011610ed057610ec281836118a7565b9190610882565b90506060813d606011610f5e575b81610f4c606093836118a7565b810103126102c95760400151386107f8565b3d9150610f3f565b6040513d85823e3d90fd5b634e487b7160e01b82526011600452602482fd5b610f8e90611845565b38610613565b610fae91925060203d602011610ed057610ec281836118a7565b90386105c4565b50604051903d90823e3d90fd5b634e487b7160e01b81526041600452602490fd5b60405163c4252ad960e01b8152600490fd5b506001600160c01b0360043561014401351161049d565b604051634178de5360e01b8152600490fd5b506001600160c01b036004356101a4013511610481565b6040516322c357c560e01b8152600490fd5b506729a2241af62c0000610184600435013511610469565b60405163b2cfb89160e01b8152600490fd5b506301e1338061016460043501351161044c565b60405163395de2cf60e11b8152600490fd5b5061016d610124600435013511610435565b6040516302b90cf360e41b8152600490fd5b5060e4600435013561010460043501351161041f565b60405163bc2bb1cd60e01b8152600490fd5b506c0c9f2c9cd04674edea4000000060e460043501351161040b565b6040516324664fdf60e01b8152600490fd5b6040516343a5467b60e11b8152600490fd5b604051630ee0a31960e01b8152600490fd5b604051635e98850360e11b8152600490fd5b60405163aefce65760e01b8152600490fd5b6040516388bfa10960e01b8152600490fd5b604051638f2cb49160e01b8152600490fd5b60405162461bcd60e51b815260206004820152601f60248201527f5265656e7472616e637947756172643a207265656e7472616e742063616c6c006044820152606490fd5b50346101f957806003193601126101f957602060405160078152f35b50346101f95760203660031901126101f957600435906004548210156101f95760206111fc83611929565b905460405160039290921b1c6001600160a01b03168152f35b50346101f95760203660031901126101f9576004356001600160a01b03811690819003610e5d5760408260ff9260209452600584522054166040519015158152f35b50346101f957806003193601126101f9576002546040516001600160a01b039091168152602090f35b50346101f957806003193601126101f9576040517f00000000000000000000000000000000000000000000000000000000000000006001600160a01b03168152602090f35b50346101f957806003193601126101f9576020604051670f43fc2c04ee00008152f35b50346101f95760203660031901126101f9576001600160a01b03600435818116908190036102c9578260409160209452600b8452205416604051908152f35b50346101f957806003193601126101f95760206040516301e133808152f35b50346101f957806003193601126101f9576040517f00000000000000000000000000000000000000000000000000000000000000006001600160a01b03168152602090f35b50346101f957806003193601126101f9576020600354604051908152f35b50346101f957806003193601126101f9576020604051610e108152f35b50346101f957806003193601126101f9576040517f00000000000000000000000000000000000000000000000000000000000000006001600160a01b03168152602090f35b50346101f957806003193601126101f957546040516001600160a01b039091168152602090f35b50346101f95760203660031901126101f9576001600160a01b03600435818116908190036102c957826040916020945260098452205416604051908152f35b50346101f957806003193601126101f9576114a161148d6118c9565b6040519182916020835260208301906118e9565b0390f35b50346101f957806003193601126101f9576040517f00000000000000000000000000000000000000000000000000000000000000006001600160a01b03168152602090f35b50346101f95760203660031901126101f9576001600160a01b03600435818116908190036102c957826040916020945260078452205416604051908152f35b50346101f957806003193601126101f9576020604051670de0b6b3a76400008152f35b50346101f957806003193601126101f957611565611976565b80546001600160a01b03198116825581906001600160a01b03167f8be0079c531659141344cd1fd0a4f28419497f9722a3daafe3b4186f6b6457e08280a380f35b50346101f95760203660031901126101f9576004356001600160a01b03811690819003610e5d5760207fb83f5a562e0680b568d7194814953b452c737c9ef7d4f8ee26b87d34ab9a1bc8916115f9611976565b600280546001600160a01b03191682179055604051908152a180f35b50346101f957806003193601126101f95760206040516729a2241af62c00008152f35b50346101f957806003193601126101f9576040517f00000000000000000000000000000000000000000000000000000000000000006001600160a01b03168152602090f35b50346101f957806003193601126101f957602060405161dead8152f35b50346101f957806003193601126101f9576020604051620f42408152f35b50346101f95760203660031901126101f9576001600160a01b03600435818116908190036102c9578260409160209452600a8452205416604051908152f35b50346101f957806003193601126101f9576040517f00000000000000000000000000000000000000000000000000000000000000006001600160a01b03168152602090f35b50346101f957806003193601126101f9576020600454604051908152f35b50346101f957806003193601126101f957602060405161016d8152f35b50346101f957806003193601126101f9576040517f00000000000000000000000000000000000000000000000000000000000000006001600160a01b03168152602090f35b50346101f957806003193601126101f9576040516001600160c01b038152602090f35b50346101f95760203660031901126101f9576001600160a01b03600435818116908190036102c957826040916020945260088452205416604051908152f35b905034610e5d5781600319360112610e5d57806c0c9f2c9cd04674edea4000000060209252f35b67ffffffffffffffff811161185957604052565b634e487b7160e01b600052604160045260246000fd5b6040810190811067ffffffffffffffff82111761185957604052565b6080810190811067ffffffffffffffff82111761185957604052565b90601f8019910116810190811067ffffffffffffffff82111761185957604052565b604051906118d68261186f565b6004825263199d5b9960e21b6020830152565b919082519283825260005b848110611915575050826000602080949584010152601f8019910116010190565b6020818301810151848301820152016118f4565b6004548110156119605760046000527f8a35acfbc15ff81a39ae7d344fd709f28e8600b4aa8c65c6b64bfe7fe36bd19b0190600090565b634e487b7160e01b600052603260045260246000fd5b6000546001600160a01b0316330361198a57565b606460405162461bcd60e51b815260206004820152602060248201527f4f776e61626c653a2063616c6c6572206973206e6f7420746865206f776e65726044820152fd5b903590601e1981360301821215611a01570180359067ffffffffffffffff8211611a0157602001918136038313611a0157565b600080fd5b90816020910312611a0157516001600160a01b0381168103611a015790565b908060209392818452848401376000828201840152601f01601f1916010190565b356001600160a01b0381168103611a015790565b60405163095ea7b360e01b60208201526001600160a01b03909216602483015260006044808401919091528252611a9a9190611a958261188b565b611bda565b565b91909181158015611b4e575b15611aea5760405163095ea7b360e01b60208201526001600160a01b03939093166024840152604480840192909252908252611a9a9190611a956064836118a7565b60405162461bcd60e51b815260206004820152603660248201527f5361666545524332303a20617070726f76652066726f6d206e6f6e2d7a65726f60448201527520746f206e6f6e2d7a65726f20616c6c6f77616e636560501b6064820152608490fd5b50604051636eb1769f60e11b81523060048201526001600160a01b0384166024820152602081806044810103816001600160a01b0386165afa908115611bce57600091611b9d575b5015611aa8565b906020823d8211611bc6575b81611bb6602093836118a7565b810103126101f957505138611b96565b3d9150611ba9565b6040513d6000823e3d90fd5b60018060a01b031690604051611bef8161186f565b6020928382527f5361666545524332303a206c6f772d6c6576656c2063616c6c206661696c6564848301526000808486829651910182855af13d15611d14573d9167ffffffffffffffff8311611d005790611c6a93929160405192611c5d88601f19601f84011601856118a7565b83523d868885013e611d1e565b805191821591848315611cdc575b505050905015611c855750565b6084906040519062461bcd60e51b82526004820152602a60248201527f5361666545524332303a204552433230206f7065726174696f6e20646964206e6044820152691bdd081cdd58d8d9595960b21b6064820152fd5b919381809450010312610e5d578201519081151582036101f9575080388084611c78565b634e487b7160e01b85526041600452602485fd5b90611c6a92916060915b91929015611d805750815115611d32575090565b3b15611d3b5790565b60405162461bcd60e51b815260206004820152601d60248201527f416464726573733a2063616c6c20746f206e6f6e2d636f6e74726163740000006044820152606490fd5b825190915015611d935750805190602001fd5b60405162461bcd60e51b815260206004820152908190611db79060248301906118e9565b0390fdfea26469706673582212206b9f66d0b618c0b3d6ddeb0153d1911dfe881d951e8959281898bdcc494e456064736f6c63430008130033",
  "linkReferences": {},
  "deployedLinkReferences": {}
}