{
  "_format": "hh-sol-artifact-1",
  "contractName": "MineCore",
  "sourceName": "contracts/rigs/mine/MineCore.sol",
  "abi": [
    {
      "inputs": [
        {
          "internalType": "address",
          "name": "_registry",
          "type": "address"
        },
        {
          "internalType": "address",
          "name": "_usdcToken",
          "type": "address"
        },
        {
          "internalType": "address",
          "name": "_uniswapV2Factory",
          "type": "address"
        },
        {
          "internalType": "address",
          "name": "_uniswapV2Router",
          "type": "address"
        },
        {
          "internalType": "address",
          "name": "_unitFactory",
          "type": "address"
        },
        {
          "internalType": "address",
          "name": "_mineRigFactory",
          "type": "address"
        },
        {
          "internalType": "address",
          "name": "_auctionFactory",
          "type": "address"
        },
        {
          "internalType": "address",
          "name": "_entropy",
          "type": "address"
        },
        {
          "internalType": "address",
          "name": "_protocolFeeAddress",
          "type": "address"
        },
        {
          "internalType": "uint256",
          "name": "_minUsdcForLaunch",
          "type": "uint256"
        }
      ],
      "stateMutability": "nonpayable",
      "type": "constructor"
    },
    {
      "inputs": [],
      "name": "MineCore__EmptyTokenName",
      "type": "error"
    },
    {
      "inputs": [],
      "name": "MineCore__EmptyTokenSymbol",
      "type": "error"
    },
    {
      "inputs": [],
      "name": "MineCore__EmptyUri",
      "type": "error"
    },
    {
      "inputs": [],
      "name": "MineCore__InsufficientUsdc",
      "type": "error"
    },
    {
      "inputs": [],
      "name": "MineCore__ZeroAddress",
      "type": "error"
    },
    {
      "inputs": [],
      "name": "MineCore__ZeroLauncher",
      "type": "error"
    },
    {
      "inputs": [],
      "name": "MineCore__ZeroQuoteToken",
      "type": "error"
    },
    {
      "inputs": [],
      "name": "MineCore__ZeroUnitAmount",
      "type": "error"
    },
    {
      "anonymous": false,
      "inputs": [
        {
          "indexed": true,
          "internalType": "address",
          "name": "launcher",
          "type": "address"
        },
        {
          "indexed": true,
          "internalType": "address",
          "name": "rig",
          "type": "address"
        },
        {
          "indexed": true,
          "internalType": "address",
          "name": "unit",
          "type": "address"
        },
        {
          "indexed": false,
          "internalType": "address",
          "name": "auction",
          "type": "address"
        },
        {
          "indexed": false,
          "internalType": "address",
          "name": "lpToken",
          "type": "address"
        },
        {
          "indexed": false,
          "internalType": "address",
          "name": "quoteToken",
          "type": "address"
        },
        {
          "indexed": false,
          "internalType": "string",
          "name": "tokenName",
          "type": "string"
        },
        {
          "indexed": false,
          "internalType": "string",
          "name": "tokenSymbol",
          "type": "string"
        },
        {
          "indexed": false,
          "internalType": "string",
          "name": "uri",
          "type": "string"
        },
        {
          "indexed": false,
          "internalType": "uint256",
          "name": "usdcAmount",
          "type": "uint256"
        },
        {
          "indexed": false,
          "internalType": "uint256",
          "name": "unitAmount",
          "type": "uint256"
        },
        {
          "indexed": false,
          "internalType": "uint256",
          "name": "initialUps",
          "type": "uint256"
        },
        {
          "indexed": false,
          "internalType": "uint256",
          "name": "tailUps",
          "type": "uint256"
        },
        {
          "indexed": false,
          "internalType": "uint256",
          "name": "halvingAmount",
          "type": "uint256"
        },
        {
          "indexed": false,
          "internalType": "uint256",
          "name": "rigEpochPeriod",
          "type": "uint256"
        },
        {
          "indexed": false,
          "internalType": "uint256",
          "name": "rigPriceMultiplier",
          "type": "uint256"
        },
        {
          "indexed": false,
          "internalType": "uint256",
          "name": "rigMinInitPrice",
          "type": "uint256"
        },
        {
          "indexed": false,
          "internalType": "uint256[]",
          "name": "upsMultipliers",
          "type": "uint256[]"
        },
        {
          "indexed": false,
          "internalType": "uint256",
          "name": "upsMultiplierDuration",
          "type": "uint256"
        },
        {
          "indexed": false,
          "internalType": "uint256",
          "name": "auctionInitPrice",
          "type": "uint256"
        },
        {
          "indexed": false,
          "internalType": "uint256",
          "name": "auctionEpochPeriod",
          "type": "uint256"
        },
        {
          "indexed": false,
          "internalType": "uint256",
          "name": "auctionPriceMultiplier",
          "type": "uint256"
        },
        {
          "indexed": false,
          "internalType": "uint256",
          "name": "auctionMinInitPrice",
          "type": "uint256"
        }
      ],
      "name": "MineCore__Launched",
      "type": "event"
    },
    {
      "anonymous": false,
      "inputs": [
        {
          "indexed": false,
          "internalType": "uint256",
          "name": "minUsdcForLaunch",
          "type": "uint256"
        }
      ],
      "name": "MineCore__MinUsdcForLaunchSet",
      "type": "event"
    },
    {
      "anonymous": false,
      "inputs": [
        {
          "indexed": false,
          "internalType": "address",
          "name": "protocolFeeAddress",
          "type": "address"
        }
      ],
      "name": "MineCore__ProtocolFeeAddressSet",
      "type": "event"
    },
    {
      "anonymous": false,
      "inputs": [
        {
          "indexed": true,
          "internalType": "address",
          "name": "previousOwner",
          "type": "address"
        },
        {
          "indexed": true,
          "internalType": "address",
          "name": "newOwner",
          "type": "address"
        }
      ],
      "name": "OwnershipTransferred",
      "type": "event"
    },
    {
      "inputs": [],
      "name": "DEAD_ADDRESS",
      "outputs": [
        {
          "internalType": "address",
          "name": "",
          "type": "address"
        }
      ],
      "stateMutability": "view",
      "type": "function"
    },
    {
      "inputs": [],
      "name": "RIG_TYPE",
      "outputs": [
        {
          "internalType": "string",
          "name": "",
          "type": "string"
        }
      ],
      "stateMutability": "view",
      "type": "function"
    },
    {
      "inputs": [],
      "name": "auctionFactory",
      "outputs": [
        {
          "internalType": "address",
          "name": "",
          "type": "address"
        }
      ],
      "stateMutability": "view",
      "type": "function"
    },
    {
      "inputs": [],
      "name": "entropy",
      "outputs": [
        {
          "internalType": "address",
          "name": "",
          "type": "address"
        }
      ],
      "stateMutability": "view",
      "type": "function"
    },
    {
      "inputs": [
        {
          "components": [
            {
              "internalType": "address",
              "name": "launcher",
              "type": "address"
            },
            {
              "internalType": "address",
              "name": "quoteToken",
              "type": "address"
            },
            {
              "internalType": "string",
              "name": "tokenName",
              "type": "string"
            },
            {
              "internalType": "string",
              "name": "tokenSymbol",
              "type": "string"
            },
            {
              "internalType": "string",
              "name": "uri",
              "type": "string"
            },
            {
              "internalType": "uint256",
              "name": "usdcAmount",
              "type": "uint256"
            },
            {
              "internalType": "uint256",
              "name": "unitAmount",
              "type": "uint256"
            },
            {
              "internalType": "uint256",
              "name": "initialUps",
              "type": "uint256"
            },
            {
              "internalType": "uint256",
              "name": "tailUps",
              "type": "uint256"
            },
            {
              "internalType": "uint256",
              "name": "halvingAmount",
              "type": "uint256"
            },
            {
              "internalType": "uint256",
              "name": "rigEpochPeriod",
              "type": "uint256"
            },
            {
              "internalType": "uint256",
              "name": "rigPriceMultiplier",
              "type": "uint256"
            },
            {
              "internalType": "uint256",
              "name": "rigMinInitPrice",
              "type": "uint256"
            },
            {
              "internalType": "uint256[]",
              "name": "upsMultipliers",
              "type": "uint256[]"
            },
            {
              "internalType": "uint256",
              "name": "upsMultiplierDuration",
              "type": "uint256"
            },
            {
              "internalType": "uint256",
              "name": "auctionInitPrice",
              "type": "uint256"
            },
            {
              "internalType": "uint256",
              "name": "auctionEpochPeriod",
              "type": "uint256"
            },
            {
              "internalType": "uint256",
              "name": "auctionPriceMultiplier",
              "type": "uint256"
            },
            {
              "internalType": "uint256",
              "name": "auctionMinInitPrice",
              "type": "uint256"
            }
          ],
          "internalType": "struct MineCore.LaunchParams",
          "name": "params",
          "type": "tuple"
        }
      ],
      "name": "launch",
      "outputs": [
        {
          "internalType": "address",
          "name": "unit",
          "type": "address"
        },
        {
          "internalType": "address",
          "name": "rig",
          "type": "address"
        },
        {
          "internalType": "address",
          "name": "auction",
          "type": "address"
        },
        {
          "internalType": "address",
          "name": "lpToken",
          "type": "address"
        }
      ],
      "stateMutability": "nonpayable",
      "type": "function"
    },
    {
      "inputs": [],
      "name": "minUsdcForLaunch",
      "outputs": [
        {
          "internalType": "uint256",
          "name": "",
          "type": "uint256"
        }
      ],
      "stateMutability": "view",
      "type": "function"
    },
    {
      "inputs": [],
      "name": "mineRigFactory",
      "outputs": [
        {
          "internalType": "address",
          "name": "",
          "type": "address"
        }
      ],
      "stateMutability": "view",
      "type": "function"
    },
    {
      "inputs": [],
      "name": "owner",
      "outputs": [
        {
          "internalType": "address",
          "name": "",
          "type": "address"
        }
      ],
      "stateMutability": "view",
      "type": "function"
    },
    {
      "inputs": [],
      "name": "protocolFeeAddress",
      "outputs": [
        {
          "internalType": "address",
          "name": "",
          "type": "address"
        }
      ],
      "stateMutability": "view",
      "type": "function"
    },
    {
      "inputs": [],
      "name": "registry",
      "outputs": [
        {
          "internalType": "address",
          "name": "",
          "type": "address"
        }
      ],
      "stateMutability": "view",
      "type": "function"
    },
    {
      "inputs": [],
      "name": "renounceOwnership",
      "outputs": [],
      "stateMutability": "nonpayable",
      "type": "function"
    },
    {
      "inputs": [
        {
          "internalType": "address",
          "name": "",
          "type": "address"
        }
      ],
      "name": "rigToAuction",
      "outputs": [
        {
          "internalType": "address",
          "name": "",
          "type": "address"
        }
      ],
      "stateMutability": "view",
      "type": "function"
    },
    {
      "inputs": [
        {
          "internalType": "address",
          "name": "",
          "type": "address"
        }
      ],
      "name": "rigToIndex",
      "outputs": [
        {
          "internalType": "uint256",
          "name": "",
          "type": "uint256"
        }
      ],
      "stateMutability": "view",
      "type": "function"
    },
    {
      "inputs": [
        {
          "internalType": "address",
          "name": "",
          "type": "address"
        }
      ],
      "name": "rigToIsRig",
      "outputs": [
        {
          "internalType": "bool",
          "name": "",
          "type": "bool"
        }
      ],
      "stateMutability": "view",
      "type": "function"
    },
    {
      "inputs": [
        {
          "internalType": "address",
          "name": "",
          "type": "address"
        }
      ],
      "name": "rigToLP",
      "outputs": [
        {
          "internalType": "address",
          "name": "",
          "type": "address"
        }
      ],
      "stateMutability": "view",
      "type": "function"
    },
    {
      "inputs": [
        {
          "internalType": "uint256",
          "name": "",
          "type": "uint256"
        }
      ],
      "name": "rigs",
      "outputs": [
        {
          "internalType": "address",
          "name": "",
          "type": "address"
        }
      ],
      "stateMutability": "view",
      "type": "function"
    },
    {
      "inputs": [],
      "name": "rigsLength",
      "outputs": [
        {
          "internalType": "uint256",
          "name": "",
          "type": "uint256"
        }
      ],
      "stateMutability": "view",
      "type": "function"
    },
    {
      "inputs": [
        {
          "internalType": "uint256",
          "name": "_minUsdcForLaunch",
          "type": "uint256"
        }
      ],
      "name": "setMinUsdcForLaunch",
      "outputs": [],
      "stateMutability": "nonpayable",
      "type": "function"
    },
    {
      "inputs": [
        {
          "internalType": "address",
          "name": "_protocolFeeAddress",
          "type": "address"
        }
      ],
      "name": "setProtocolFeeAddress",
      "outputs": [],
      "stateMutability": "nonpayable",
      "type": "function"
    },
    {
      "inputs": [
        {
          "internalType": "address",
          "name": "newOwner",
          "type": "address"
        }
      ],
      "name": "transferOwnership",
      "outputs": [],
      "stateMutability": "nonpayable",
      "type": "function"
    },
    {
      "inputs": [],
      "name": "uniswapV2Factory",
      "outputs": [
        {
          "internalType": "address",
          "name": "",
          "type": "address"
        }
      ],
      "stateMutability": "view",
      "type": "function"
    },
    {
      "inputs": [],
      "name": "uniswapV2Router",
      "outputs": [
        {
          "internalType": "address",
          "name": "",
          "type": "address"
        }
      ],
      "stateMutability": "view",
      "type": "function"
    },
    {
      "inputs": [],
      "name": "unitFactory",
      "outputs": [
        {
          "internalType": "address",
          "name": "",
          "type": "address"
        }
      ],
      "stateMutability": "view",
      "type": "function"
    },
    {
      "inputs": [],
      "name": "usdcToken",
      "outputs": [
        {
          "internalType": "address",
          "name": "",
          "type": "address"
        }
      ],
      "stateMutability": "view",
      "type": "function"
    }
  ],
  "bytecode": "0x61018034620002b45762001de938819003601f8101601f191683016001600160401b03811184821017620002b95783928291604052833961014092839181010312620002b4576200005081620002cf565b6200005e60208301620002cf565b926200006d60408401620002cf565b6200007b60608501620002cf565b926200008a60808601620002cf565b956200009960a08701620002cf565b94620000a860c08801620002cf565b620000b660e08901620002cf565b9661010099620000c88b8b01620002cf565b93610120809b0151976000549660018060a01b031998338a8a161760005560405160018060a01b03998a3391167f8be0079c531659141344cd1fd0a4f28419497f9722a3daafe3b4186f6b6457e0600080a360018055818a16158a8f8215620002a8575b82156200029c575b821562000290575b821562000284575b821562000278575b82156200026c575b821562000260575b505062000251575060805260a05260c05260e0528a52885285526101609586521690600254161760025560035560405192611b049485620002e5863960805185818161045f01528181610f2d0152610f96015260a051858181610796015281816109450152818161099f015281816109f901528181610ab8015261146b015260c05185818161056d0152610aea015260e0518581816108b7015281816108f1015281816109240152818161097e01528181610a6801526114260152518481816102a3015261082a0152518381816103730152610d250152518281816102e80152610bc70152518181816105cf0152610c810152f35b632c21524d60e21b8152600490fd5b161590508a8f6200015c565b8a821615925062000154565b8982161592506200014c565b88821615925062000144565b8782161592506200013c565b86821615925062000134565b8582161592506200012c565b600080fd5b634e487b7160e01b600052604160045260246000fd5b51906001600160a01b0382168203620002b45756fe6080604052600436101561001257600080fd5b6000803560e01c806305244d77146114d95780630524c46a1461149a57806311eac855146114555780631694505e14611410578063320d52e31461065957806332d1338e1461061c578063446418cf146105fe57806347ce07cc146105b95780634e6fd6c41461059c57806359d0f713146105575780636b7b9112146104e8578063715018a61461048e5780637b10399914610449578063832c0e5f1461040857806383e9d76b146103c95780638da5cb5b146103a2578063941a93991461035d5780639827ba6314610317578063abf4fde4146102d2578063bbba90e21461028d578063cce516b714610264578063cf52d14314610246578063d9efb589146101f85763f2fde38b1461012557600080fd5b346101f55760203660031901126101f5576004356001600160a01b03818116918290036101f157610154611637565b811561019d57600054826bffffffffffffffffffffffff60a01b821617600055167f8be0079c531659141344cd1fd0a4f28419497f9722a3daafe3b4186f6b6457e0600080a380f35b60405162461bcd60e51b815260206004820152602660248201527f4f776e61626c653a206e6577206f776e657220697320746865207a65726f206160448201526564647265737360d01b6064820152608490fd5b8280fd5b80fd5b50346101f55760203660031901126101f5577fa35bc3479ce25737a91fd75c1b0b12d2fd1c60fd05e8f8eb1ce6a71f1824d5246020600435610238611637565b80600355604051908152a180f35b50346101f557806003193601126101f5576020600454604051908152f35b50346101f557806003193601126101f5576002546040516001600160a01b039091168152602090f35b50346101f557806003193601126101f5576040517f00000000000000000000000000000000000000000000000000000000000000006001600160a01b03168152602090f35b50346101f557806003193601126101f5576040517f00000000000000000000000000000000000000000000000000000000000000006001600160a01b03168152602090f35b50346101f55760203660031901126101f5576004356001600160a01b038116908190036103595760408260ff9260209452600584522054166040519015158152f35b5080fd5b50346101f557806003193601126101f5576040517f00000000000000000000000000000000000000000000000000000000000000006001600160a01b03168152602090f35b50346101f557806003193601126101f557546040516001600160a01b039091168152602090f35b50346101f55760203660031901126101f5576001600160a01b03600435818116908190036101f157826040916020945260088452205416604051908152f35b50346101f557806003193601126101f55761044560405161042881611594565b60048152636d696e6560e01b6020820152604051918291826115ee565b0390f35b50346101f557806003193601126101f5576040517f00000000000000000000000000000000000000000000000000000000000000006001600160a01b03168152602090f35b50346101f557806003193601126101f5576104a7611637565b600080546001600160a01b0319811682556001600160a01b03167f8be0079c531659141344cd1fd0a4f28419497f9722a3daafe3b4186f6b6457e08280a380f35b50346101f55760203660031901126101f5576004356001600160a01b038116908190036103595760207ff1dd51feb18cad48c5cce3fbb5734e2a409fe651db6ce1a42e226157e54e1c069161053b611637565b600280546001600160a01b03191682179055604051908152a180f35b50346101f557806003193601126101f5576040517f00000000000000000000000000000000000000000000000000000000000000006001600160a01b03168152602090f35b50346101f557806003193601126101f557602060405161dead8152f35b50346101f557806003193601126101f5576040517f00000000000000000000000000000000000000000000000000000000000000006001600160a01b03168152602090f35b50346101f557806003193601126101f5576020600354604051908152f35b50346101f55760203660031901126101f5576004356001600160a01b03811690819003610359578160409160209352600683522054604051908152f35b50346101f55760203660031901126101f55767ffffffffffffffff600435116101f557610260600435360360031901126101f5576002600154146113cb5760026001556001600160a01b036106b16004803501611707565b16156113b9576001600160a01b036106cd600435602401611707565b16156113a75760035460a4600435013510611395576106f660446004350160043560040161168f565b9050156113835761071160646004350160043560040161168f565b9050156113715761072c60846004350160043560040161168f565b90501561135f5760c460043501351561134e57604051906323b872dd60e01b602083015233602483015230604483015260a460043501356064830152606482528160a081011067ffffffffffffffff60a08401111761133a5760a08201604052610813916107c3907f00000000000000000000000000000000000000000000000000000000000000006001600160a01b03166118f5565b60206107d960446004350160043560040161168f565b6108256107f060646004350160043560040161168f565b604051978895869563b548848760e01b87526040600488015260448701916116e6565b848103600319016024860152916116e6565b0381847f00000000000000000000000000000000000000000000000000000000000000006001600160a01b03165af191821561126c578192611319575b506001600160a01b0382163b156101f5576040516340c10f1960e01b8152306004808301919091523560c4013560248201528181604481836001600160a01b0388165af180156111e05761130a575b506108e57f00000000000000000000000000000000000000000000000000000000000000006001600160a01b038416611775565b61091f60043560c401357f00000000000000000000000000000000000000000000000000000000000000006001600160a01b0385166117b7565b6109727f00000000000000000000000000000000000000000000000000000000000000007f00000000000000000000000000000000000000000000000000000000000000006001600160a01b0316611775565b6109cc60043560a401357f00000000000000000000000000000000000000000000000000000000000000007f00000000000000000000000000000000000000000000000000000000000000006001600160a01b03166117b7565b6104b0420142116112f65760405162e8e33760e81b81526001600160a01b038381166004808401919091527f00000000000000000000000000000000000000000000000000000000000000008216602484015260c49035818101356044850181905260a4918201356064860181905260848601919091529084015230908301526104b0420160e4830152909190606090839061010490829085907f0000000000000000000000000000000000000000000000000000000000000000165af191821561126c5781926112bf575b5060405163e6a4390560e01b81526001600160a01b0380851660048301527f000000000000000000000000000000000000000000000000000000000000000016602482015291602083806044810103817f00000000000000000000000000000000000000000000000000000000000000006001600160a01b03165afa9283156111e057829361129a575b50610b61906040519063a9059cbb60e01b602083015261dead6024830152604482015260448152610b52816115b0565b6001600160a01b0384166118f5565b60405163423b7f1960e01b81526001600160a01b0383811660048084019190915261dead6024840152356101e4810135604484015261020481013560648401526102248101356084840152610244013560a4830152909190602090839060c490829085907f0000000000000000000000000000000000000000000000000000000000000000165af191821561126c578192611279575b50610c06602460043501611707565b90610c15600435600401611707565b90610c2b6101a46004350160043560040161171b565b9190926040519463d734c42d60e01b865260018060a01b038916600487015260018060a01b0316602486015230604486015260018060a01b038616606486015260018060a01b0316608485015260018060a01b037f00000000000000000000000000000000000000000000000000000000000000001660a4850152610144600435013560c4850152610164600435013560e4850152610184600435013561010485015260208480610d146101249660e460043501358884015287600435013561014484015261010460043501356101648401526101c06101848401526101c49687840191611751565b6004358601356101a48301520381847f00000000000000000000000000000000000000000000000000000000000000006001600160a01b03165af193841561126c57819461123b575b506001600160a01b0387163b156101f55760405163588d95c960e11b81526001600160a01b03858116600483015282908290602490829084908d165af180156111e057908291611227575b5050610dbe60846004350160043560040161168f565b6001600160a01b0386163b156101f157604051639b642de160e01b81526020600482015291839183918291610df8916024840191906116e6565b0381836001600160a01b038a165af180156111e057908291611213575b5050610e25600435600401611707565b6001600160a01b0385163b156103595760405163f2fde38b60e01b81526001600160a01b0391821660048201529082908290602490829084908a165af180156111e0579082916111ff575b50506001600160a01b0384168152600560209081526040808320805460ff1916600117905560045460069092528220819055680100000000000000008110156111eb57806001610ec3920160045561151d565b81546001600160a01b0360039290921b82811b199091168783169182901b1790925590825260086020908152604080842080546001600160a01b03199081168b861617909155600790925283208054909116918716919091179055610f2b6004803501611707565b7f00000000000000000000000000000000000000000000000000000000000000006001600160a01b03163b1561035957604051633cc8050960e21b81526001600160a01b038681166004830152898116602483015291821660448201529082908290606490829084907f0000000000000000000000000000000000000000000000000000000000000000165af180156111e0579087949392916111c4575b505084600435600401610fdb90611707565b92610fea602460043501611707565b610ffc6004803560448101910161168f565b9061100f6004803560648101910161168f565b6110216004803560848101910161168f565b9390946004356101a4016004356004019061103b9161171b565b9790996040519d8e91600160a01b60019003168252600160a01b60019003169060200152600160a01b600190031660408d01528b6102806060819201528c0190611084926116e6565b908a820360808c0152611096926116e6565b9088820360a08a01526110a8926116e6565b60043560a481013560c089015260c481013560e089015260e481013561010089015261010481013561012089015292830135610140880152610144830135610160880152610164830135610180880152610184909201356101a08701528582036101c087015261111792611751565b600435918201356101e08501526101e4820135610200850152610204820135610220850152610224820135610240850152610244909101356102608401526001600160a01b038781169385821693909116917fc9fc985b91d1661e2b798da6cd9d95b179ef5701a2bd80eaa839ca1396979f4b919081900390a460018055604080516001600160a01b03958616815291851660208301529184169181019190915291166060820152608090f35b81929394506111d29061156a565b6101f5579081869392610fc9565b6040513d84823e3d90fd5b634e487b7160e01b82526041600452602482fd5b6112089061156a565b6101f5578038610e70565b61121c9061156a565b6101f5578038610e15565b6112309061156a565b6101f5578038610da8565b61125e91945060203d602011611265575b61125681836115cc565b8101906116c7565b9238610d5d565b503d61124c565b50604051903d90823e3d90fd5b61129391925060203d6020116112655761125681836115cc565b9038610bf7565b610b619193506112b89060203d6020116112655761125681836115cc565b9290610b22565b9091506060813d6060116112ee575b816112db606093836115cc565b8101031261035957604001519038610a98565b3d91506112ce565b634e487b7160e01b81526011600452602490fd5b6113139061156a565b386108b1565b61133391925060203d6020116112655761125681836115cc565b9038610862565b634e487b7160e01b81526041600452602490fd5b6040516243d83b60e01b8152600490fd5b604051633aa8ffe960e11b8152600490fd5b604051631b4d0d6b60e31b8152600490fd5b6040516340f1776b60e11b8152600490fd5b60405163532a08bf60e11b8152600490fd5b604051639551448d60e01b8152600490fd5b60405163065d0f4760e31b8152600490fd5b60405162461bcd60e51b815260206004820152601f60248201527f5265656e7472616e637947756172643a207265656e7472616e742063616c6c006044820152606490fd5b50346101f557806003193601126101f5576040517f00000000000000000000000000000000000000000000000000000000000000006001600160a01b03168152602090f35b50346101f557806003193601126101f5576040517f00000000000000000000000000000000000000000000000000000000000000006001600160a01b03168152602090f35b50346101f55760203660031901126101f5576001600160a01b03600435818116908190036101f157826040916020945260078452205416604051908152f35b50346101f55760203660031901126101f557600435906004548210156101f55760206115048361151d565b905460405160039290921b1c6001600160a01b03168152f35b6004548110156115545760046000527f8a35acfbc15ff81a39ae7d344fd709f28e8600b4aa8c65c6b64bfe7fe36bd19b0190600090565b634e487b7160e01b600052603260045260246000fd5b67ffffffffffffffff811161157e57604052565b634e487b7160e01b600052604160045260246000fd5b6040810190811067ffffffffffffffff82111761157e57604052565b6080810190811067ffffffffffffffff82111761157e57604052565b90601f8019910116810190811067ffffffffffffffff82111761157e57604052565b6020808252825181830181905290939260005b82811061162357505060409293506000838284010152601f8019910116010190565b818101860151848201604001528501611601565b6000546001600160a01b0316330361164b57565b606460405162461bcd60e51b815260206004820152602060248201527f4f776e61626c653a2063616c6c6572206973206e6f7420746865206f776e65726044820152fd5b903590601e19813603018212156116c2570180359067ffffffffffffffff82116116c2576020019181360383136116c257565b600080fd5b908160209103126116c257516001600160a01b03811681036116c25790565b908060209392818452848401376000828201840152601f01601f1916010190565b356001600160a01b03811681036116c25790565b903590601e19813603018212156116c2570180359067ffffffffffffffff82116116c257602001918160051b360383136116c257565b81835290916001600160fb1b0383116116c25760209260051b809284830137010190565b60405163095ea7b360e01b60208201526001600160a01b039092166024830152600060448084019190915282526117b591906117b0826115b0565b6118f5565b565b91909181158015611869575b156118055760405163095ea7b360e01b60208201526001600160a01b039390931660248401526044808401929092529082526117b591906117b06064836115cc565b60405162461bcd60e51b815260206004820152603660248201527f5361666545524332303a20617070726f76652066726f6d206e6f6e2d7a65726f60448201527520746f206e6f6e2d7a65726f20616c6c6f77616e636560501b6064820152608490fd5b50604051636eb1769f60e11b81523060048201526001600160a01b0384166024820152602081806044810103816001600160a01b0386165afa9081156118e9576000916118b8575b50156117c3565b906020823d82116118e1575b816118d1602093836115cc565b810103126101f5575051386118b1565b3d91506118c4565b6040513d6000823e3d90fd5b60018060a01b03169060405161190a81611594565b6020928382527f5361666545524332303a206c6f772d6c6576656c2063616c6c206661696c6564848301526000808486829651910182855af13d15611a2f573d9167ffffffffffffffff8311611a1b57906119859392916040519261197888601f19601f84011601856115cc565b83523d868885013e611a39565b8051918215918483156119f7575b5050509050156119a05750565b6084906040519062461bcd60e51b82526004820152602a60248201527f5361666545524332303a204552433230206f7065726174696f6e20646964206e6044820152691bdd081cdd58d8d9595960b21b6064820152fd5b919381809450010312610359578201519081151582036101f5575080388084611993565b634e487b7160e01b85526041600452602485fd5b9061198592916060915b91929015611a9b5750815115611a4d575090565b3b15611a565790565b60405162461bcd60e51b815260206004820152601d60248201527f416464726573733a2063616c6c20746f206e6f6e2d636f6e74726163740000006044820152606490fd5b825190915015611aae5750805190602001fd5b60405162461bcd60e51b8152908190611aca90600483016115ee565b0390fdfea264697066735822122088fe7fa94d194786b234afd381f7f996190674bfa398054ce87340874da0eb1464736f6c63430008130033",
  "linkReferences": {},
  "deployedLinkReferences": {}
}