{
  "_format": "hh-sol-artifact-1",
  "contractName": "MineRig",
  "sourceName": "contracts/rigs/mine/MineRig.sol",
  "abi": [
    {
      "inputs": [
        {
          "internalType": "address",
          "name": "_unit",
          "type": "address"
        },
        {
          "internalType": "address",
          "name": "_quote",
          "type": "address"
        },
        {
          "internalType": "address",
          "name": "_core",
          "type": "address"
        },
        {
          "internalType": "address",
          "name": "_treasury",
          "type": "address"
        },
        {
          "internalType": "address",
          "name": "_team",
          "type": "address"
        },
        {
          "internalType": "address",
          "name": "_entropy",
          "type": "address"
        },
        {
          "components": [
            {
              "internalType": "uint256",
              "name": "epochPeriod",
              "type": "uint256"
            },
            {
              "internalType": "uint256",
              "name": "priceMultiplier",
              "type": "uint256"
            },
            {
              "internalType": "uint256",
              "name": "minInitPrice",
              "type": "uint256"
            },
            {
              "internalType": "uint256",
              "name": "initialUps",
              "type": "uint256"
            },
            {
              "internalType": "uint256",
              "name": "halvingAmount",
              "type": "uint256"
            },
            {
              "internalType": "uint256",
              "name": "tailUps",
              "type": "uint256"
            },
            {
              "internalType": "uint256[]",
              "name": "upsMultipliers",
              "type": "uint256[]"
            },
            {
              "internalType": "uint256",
              "name": "upsMultiplierDuration",
              "type": "uint256"
            }
          ],
          "internalType": "struct MineRig.Config",
          "name": "_config",
          "type": "tuple"
        }
      ],
      "stateMutability": "nonpayable",
      "type": "constructor"
    },
    {
      "inputs": [],
      "name": "MineRig__CapacityBelowCurrent",
      "type": "error"
    },
    {
      "inputs": [],
      "name": "MineRig__CapacityExceedsMax",
      "type": "error"
    },
    {
      "inputs": [],
      "name": "MineRig__DeadlinePassed",
      "type": "error"
    },
    {
      "inputs": [],
      "name": "MineRig__EpochIdMismatch",
      "type": "error"
    },
    {
      "inputs": [],
      "name": "MineRig__EpochPeriodOutOfRange",
      "type": "error"
    },
    {
      "inputs": [],
      "name": "MineRig__HalvingAmountOutOfRange",
      "type": "error"
    },
    {
      "inputs": [],
      "name": "MineRig__IndexOutOfBounds",
      "type": "error"
    },
    {
      "inputs": [],
      "name": "MineRig__InitialUpsOutOfRange",
      "type": "error"
    },
    {
      "inputs": [],
      "name": "MineRig__InsufficientFee",
      "type": "error"
    },
    {
      "inputs": [],
      "name": "MineRig__MaxPriceExceeded",
      "type": "error"
    },
    {
      "inputs": [],
      "name": "MineRig__MinInitPriceOutOfRange",
      "type": "error"
    },
    {
      "inputs": [],
      "name": "MineRig__NoEntropyRequired",
      "type": "error"
    },
    {
      "inputs": [],
      "name": "MineRig__NothingToClaim",
      "type": "error"
    },
    {
      "inputs": [],
      "name": "MineRig__PriceMultiplierOutOfRange",
      "type": "error"
    },
    {
      "inputs": [],
      "name": "MineRig__TailUpsOutOfRange",
      "type": "error"
    },
    {
      "inputs": [],
      "name": "MineRig__UpsMultiplierDurationOutOfRange",
      "type": "error"
    },
    {
      "inputs": [],
      "name": "MineRig__UpsMultiplierOutOfRange",
      "type": "error"
    },
    {
      "inputs": [],
      "name": "MineRig__UpsMultipliersEmpty",
      "type": "error"
    },
    {
      "inputs": [],
      "name": "MineRig__ZeroAddress",
      "type": "error"
    },
    {
      "inputs": [],
      "name": "MineRig__ZeroMiner",
      "type": "error"
    },
    {
      "anonymous": false,
      "inputs": [
        {
          "indexed": false,
          "internalType": "uint256",
          "name": "capacity",
          "type": "uint256"
        }
      ],
      "name": "MineRig__CapacitySet",
      "type": "event"
    },
    {
      "anonymous": false,
      "inputs": [
        {
          "indexed": true,
          "internalType": "address",
          "name": "account",
          "type": "address"
        },
        {
          "indexed": false,
          "internalType": "uint256",
          "name": "amount",
          "type": "uint256"
        }
      ],
      "name": "MineRig__Claimed",
      "type": "event"
    },
    {
      "anonymous": false,
      "inputs": [
        {
          "indexed": false,
          "internalType": "bool",
          "name": "enabled",
          "type": "bool"
        }
      ],
      "name": "MineRig__EntropyEnabledSet",
      "type": "event"
    },
    {
      "anonymous": false,
      "inputs": [
        {
          "indexed": true,
          "internalType": "uint256",
          "name": "index",
          "type": "uint256"
        },
        {
          "indexed": true,
          "internalType": "uint256",
          "name": "epochId",
          "type": "uint256"
        }
      ],
      "name": "MineRig__EntropyIgnored",
      "type": "event"
    },
    {
      "anonymous": false,
      "inputs": [
        {
          "indexed": true,
          "internalType": "uint256",
          "name": "index",
          "type": "uint256"
        },
        {
          "indexed": true,
          "internalType": "uint256",
          "name": "epochId",
          "type": "uint256"
        },
        {
          "indexed": true,
          "internalType": "uint64",
          "name": "sequenceNumber",
          "type": "uint64"
        }
      ],
      "name": "MineRig__EntropyRequested",
      "type": "event"
    },
    {
      "anonymous": false,
      "inputs": [
        {
          "indexed": false,
          "internalType": "address",
          "name": "sender",
          "type": "address"
        },
        {
          "indexed": true,
          "internalType": "address",
          "name": "miner",
          "type": "address"
        },
        {
          "indexed": true,
          "internalType": "uint256",
          "name": "index",
          "type": "uint256"
        },
        {
          "indexed": true,
          "internalType": "uint256",
          "name": "epochId",
          "type": "uint256"
        },
        {
          "indexed": false,
          "internalType": "uint256",
          "name": "price",
          "type": "uint256"
        },
        {
          "indexed": false,
          "internalType": "string",
          "name": "uri",
          "type": "string"
        }
      ],
      "name": "MineRig__Mine",
      "type": "event"
    },
    {
      "anonymous": false,
      "inputs": [
        {
          "indexed": true,
          "internalType": "address",
          "name": "miner",
          "type": "address"
        },
        {
          "indexed": true,
          "internalType": "uint256",
          "name": "index",
          "type": "uint256"
        },
        {
          "indexed": true,
          "internalType": "uint256",
          "name": "epochId",
          "type": "uint256"
        },
        {
          "indexed": false,
          "internalType": "uint256",
          "name": "amount",
          "type": "uint256"
        }
      ],
      "name": "MineRig__MinerFee",
      "type": "event"
    },
    {
      "anonymous": false,
      "inputs": [
        {
          "indexed": true,
          "internalType": "address",
          "name": "miner",
          "type": "address"
        },
        {
          "indexed": true,
          "internalType": "uint256",
          "name": "index",
          "type": "uint256"
        },
        {
          "indexed": true,
          "internalType": "uint256",
          "name": "epochId",
          "type": "uint256"
        },
        {
          "indexed": false,
          "internalType": "uint256",
          "name": "amount",
          "type": "uint256"
        }
      ],
      "name": "MineRig__Mint",
      "type": "event"
    },
    {
      "anonymous": false,
      "inputs": [
        {
          "indexed": true,
          "internalType": "address",
          "name": "protocol",
          "type": "address"
        },
        {
          "indexed": true,
          "internalType": "uint256",
          "name": "index",
          "type": "uint256"
        },
        {
          "indexed": true,
          "internalType": "uint256",
          "name": "epochId",
          "type": "uint256"
        },
        {
          "indexed": false,
          "internalType": "uint256",
          "name": "amount",
          "type": "uint256"
        }
      ],
      "name": "MineRig__ProtocolFee",
      "type": "event"
    },
    {
      "anonymous": false,
      "inputs": [
        {
          "indexed": true,
          "internalType": "address",
          "name": "team",
          "type": "address"
        },
        {
          "indexed": true,
          "internalType": "uint256",
          "name": "index",
          "type": "uint256"
        },
        {
          "indexed": true,
          "internalType": "uint256",
          "name": "epochId",
          "type": "uint256"
        },
        {
          "indexed": false,
          "internalType": "uint256",
          "name": "amount",
          "type": "uint256"
        }
      ],
      "name": "MineRig__TeamFee",
      "type": "event"
    },
    {
      "anonymous": false,
      "inputs": [
        {
          "indexed": true,
          "internalType": "address",
          "name": "team",
          "type": "address"
        }
      ],
      "name": "MineRig__TeamSet",
      "type": "event"
    },
    {
      "anonymous": false,
      "inputs": [
        {
          "indexed": true,
          "internalType": "address",
          "name": "treasury",
          "type": "address"
        },
        {
          "indexed": true,
          "internalType": "uint256",
          "name": "index",
          "type": "uint256"
        },
        {
          "indexed": true,
          "internalType": "uint256",
          "name": "epochId",
          "type": "uint256"
        },
        {
          "indexed": false,
          "internalType": "uint256",
          "name": "amount",
          "type": "uint256"
        }
      ],
      "name": "MineRig__TreasuryFee",
      "type": "event"
    },
    {
      "anonymous": false,
      "inputs": [
        {
          "indexed": true,
          "internalType": "address",
          "name": "treasury",
          "type": "address"
        }
      ],
      "name": "MineRig__TreasurySet",
      "type": "event"
    },
    {
      "anonymous": false,
      "inputs": [
        {
          "indexed": true,
          "internalType": "uint256",
          "name": "index",
          "type": "uint256"
        },
        {
          "indexed": true,
          "internalType": "uint256",
          "name": "epochId",
          "type": "uint256"
        },
        {
          "indexed": false,
          "internalType": "uint256",
          "name": "upsMultiplier",
          "type": "uint256"
        }
      ],
      "name": "MineRig__UpsMultiplierSet",
      "type": "event"
    },
    {
      "anonymous": false,
      "inputs": [
        {
          "indexed": false,
          "internalType": "string",
          "name": "uri",
          "type": "string"
        }
      ],
      "name": "MineRig__UriSet",
      "type": "event"
    },
    {
      "anonymous": false,
      "inputs": [
        {
          "indexed": true,
          "internalType": "address",
          "name": "previousOwner",
          "type": "address"
        },
        {
          "indexed": true,
          "internalType": "address",
          "name": "newOwner",
          "type": "address"
        }
      ],
      "name": "OwnershipTransferred",
      "type": "event"
    },
    {
      "inputs": [],
      "name": "ABS_MAX_INIT_PRICE",
      "outputs": [
        {
          "internalType": "uint256",
          "name": "",
          "type": "uint256"
        }
      ],
      "stateMutability": "view",
      "type": "function"
    },
    {
      "inputs": [],
      "name": "ABS_MIN_INIT_PRICE",
      "outputs": [
        {
          "internalType": "uint256",
          "name": "",
          "type": "uint256"
        }
      ],
      "stateMutability": "view",
      "type": "function"
    },
    {
      "inputs": [],
      "name": "DEFAULT_UPS_MULTIPLIER",
      "outputs": [
        {
          "internalType": "uint256",
          "name": "",
          "type": "uint256"
        }
      ],
      "stateMutability": "view",
      "type": "function"
    },
    {
      "inputs": [],
      "name": "DIVISOR",
      "outputs": [
        {
          "internalType": "uint256",
          "name": "",
          "type": "uint256"
        }
      ],
      "stateMutability": "view",
      "type": "function"
    },
    {
      "inputs": [],
      "name": "MAX_CAPACITY",
      "outputs": [
        {
          "internalType": "uint256",
          "name": "",
          "type": "uint256"
        }
      ],
      "stateMutability": "view",
      "type": "function"
    },
    {
      "inputs": [],
      "name": "MAX_EPOCH_PERIOD",
      "outputs": [
        {
          "internalType": "uint256",
          "name": "",
          "type": "uint256"
        }
      ],
      "stateMutability": "view",
      "type": "function"
    },
    {
      "inputs": [],
      "name": "MAX_HALVING_AMOUNT",
      "outputs": [
        {
          "internalType": "uint256",
          "name": "",
          "type": "uint256"
        }
      ],
      "stateMutability": "view",
      "type": "function"
    },
    {
      "inputs": [],
      "name": "MAX_INITIAL_UPS",
      "outputs": [
        {
          "internalType": "uint256",
          "name": "",
          "type": "uint256"
        }
      ],
      "stateMutability": "view",
      "type": "function"
    },
    {
      "inputs": [],
      "name": "MAX_PRICE_MULTIPLIER",
      "outputs": [
        {
          "internalType": "uint256",
          "name": "",
          "type": "uint256"
        }
      ],
      "stateMutability": "view",
      "type": "function"
    },
    {
      "inputs": [],
      "name": "MAX_UPS_MULTIPLIER",
      "outputs": [
        {
          "internalType": "uint256",
          "name": "",
          "type": "uint256"
        }
      ],
      "stateMutability": "view",
      "type": "function"
    },
    {
      "inputs": [],
      "name": "MAX_UPS_MULTIPLIER_DURATION",
      "outputs": [
        {
          "internalType": "uint256",
          "name": "",
          "type": "uint256"
        }
      ],
      "stateMutability": "view",
      "type": "function"
    },
    {
      "inputs": [],
      "name": "MIN_EPOCH_PERIOD",
      "outputs": [
        {
          "internalType": "uint256",
          "name": "",
          "type": "uint256"
        }
      ],
      "stateMutability": "view",
      "type": "function"
    },
    {
      "inputs": [],
      "name": "MIN_HALVING_AMOUNT",
      "outputs": [
        {
          "internalType": "uint256",
          "name": "",
          "type": "uint256"
        }
      ],
      "stateMutability": "view",
      "type": "function"
    },
    {
      "inputs": [],
      "name": "MIN_PRICE_MULTIPLIER",
      "outputs": [
        {
          "internalType": "uint256",
          "name": "",
          "type": "uint256"
        }
      ],
      "stateMutability": "view",
      "type": "function"
    },
    {
      "inputs": [],
      "name": "MIN_UPS_MULTIPLIER",
      "outputs": [
        {
          "internalType": "uint256",
          "name": "",
          "type": "uint256"
        }
      ],
      "stateMutability": "view",
      "type": "function"
    },
    {
      "inputs": [],
      "name": "MIN_UPS_MULTIPLIER_DURATION",
      "outputs": [
        {
          "internalType": "uint256",
          "name": "",
          "type": "uint256"
        }
      ],
      "stateMutability": "view",
      "type": "function"
    },
    {
      "inputs": [],
      "name": "PRECISION",
      "outputs": [
        {
          "internalType": "uint256",
          "name": "",
          "type": "uint256"
        }
      ],
      "stateMutability": "view",
      "type": "function"
    },
    {
      "inputs": [],
      "name": "PROTOCOL_BPS",
      "outputs": [
        {
          "internalType": "uint256",
          "name": "",
          "type": "uint256"
        }
      ],
      "stateMutability": "view",
      "type": "function"
    },
    {
      "inputs": [],
      "name": "TEAM_BPS",
      "outputs": [
        {
          "internalType": "uint256",
          "name": "",
          "type": "uint256"
        }
      ],
      "stateMutability": "view",
      "type": "function"
    },
    {
      "inputs": [],
      "name": "TOTAL_BPS",
      "outputs": [
        {
          "internalType": "uint256",
          "name": "",
          "type": "uint256"
        }
      ],
      "stateMutability": "view",
      "type": "function"
    },
    {
      "inputs": [
        {
          "internalType": "uint64",
          "name": "sequence",
          "type": "uint64"
        },
        {
          "internalType": "address",
          "name": "provider",
          "type": "address"
        },
        {
          "internalType": "bytes32",
          "name": "randomNumber",
          "type": "bytes32"
        }
      ],
      "name": "_entropyCallback",
      "outputs": [],
      "stateMutability": "nonpayable",
      "type": "function"
    },
    {
      "inputs": [
        {
          "internalType": "address",
          "name": "",
          "type": "address"
        }
      ],
      "name": "accountToClaimable",
      "outputs": [
        {
          "internalType": "uint256",
          "name": "",
          "type": "uint256"
        }
      ],
      "stateMutability": "view",
      "type": "function"
    },
    {
      "inputs": [],
      "name": "capacity",
      "outputs": [
        {
          "internalType": "uint256",
          "name": "",
          "type": "uint256"
        }
      ],
      "stateMutability": "view",
      "type": "function"
    },
    {
      "inputs": [
        {
          "internalType": "address",
          "name": "account",
          "type": "address"
        }
      ],
      "name": "claim",
      "outputs": [],
      "stateMutability": "nonpayable",
      "type": "function"
    },
    {
      "inputs": [],
      "name": "core",
      "outputs": [
        {
          "internalType": "address",
          "name": "",
          "type": "address"
        }
      ],
      "stateMutability": "view",
      "type": "function"
    },
    {
      "inputs": [],
      "name": "entropy",
      "outputs": [
        {
          "internalType": "address",
          "name": "",
          "type": "address"
        }
      ],
      "stateMutability": "view",
      "type": "function"
    },
    {
      "inputs": [],
      "name": "entropyEnabled",
      "outputs": [
        {
          "internalType": "bool",
          "name": "",
          "type": "bool"
        }
      ],
      "stateMutability": "view",
      "type": "function"
    },
    {
      "inputs": [],
      "name": "epochPeriod",
      "outputs": [
        {
          "internalType": "uint256",
          "name": "",
          "type": "uint256"
        }
      ],
      "stateMutability": "view",
      "type": "function"
    },
    {
      "inputs": [],
      "name": "getEntropyFee",
      "outputs": [
        {
          "internalType": "uint256",
          "name": "",
          "type": "uint256"
        }
      ],
      "stateMutability": "view",
      "type": "function"
    },
    {
      "inputs": [
        {
          "internalType": "uint256",
          "name": "index",
          "type": "uint256"
        }
      ],
      "name": "getPrice",
      "outputs": [
        {
          "internalType": "uint256",
          "name": "",
          "type": "uint256"
        }
      ],
      "stateMutability": "view",
      "type": "function"
    },
    {
      "inputs": [
        {
          "internalType": "uint256",
          "name": "index",
          "type": "uint256"
        }
      ],
      "name": "getSlot",
      "outputs": [
        {
          "components": [
            {
              "internalType": "uint256",
              "name": "epochId",
              "type": "uint256"
            },
            {
              "internalType": "uint256",
              "name": "initPrice",
              "type": "uint256"
            },
            {
              "internalType": "uint256",
              "name": "startTime",
              "type": "uint256"
            },
            {
              "internalType": "uint256",
              "name": "ups",
              "type": "uint256"
            },
            {
              "internalType": "uint256",
              "name": "upsMultiplier",
              "type": "uint256"
            },
            {
              "internalType": "uint256",
              "name": "lastUpsMultiplierTime",
              "type": "uint256"
            },
            {
              "internalType": "address",
              "name": "miner",
              "type": "address"
            },
            {
              "internalType": "string",
              "name": "uri",
              "type": "string"
            }
          ],
          "internalType": "struct MineRig.Slot",
          "name": "",
          "type": "tuple"
        }
      ],
      "stateMutability": "view",
      "type": "function"
    },
    {
      "inputs": [],
      "name": "getUps",
      "outputs": [
        {
          "internalType": "uint256",
          "name": "",
          "type": "uint256"
        }
      ],
      "stateMutability": "view",
      "type": "function"
    },
    {
      "inputs": [],
      "name": "getUpsMultipliers",
      "outputs": [
        {
          "internalType": "uint256[]",
          "name": "",
          "type": "uint256[]"
        }
      ],
      "stateMutability": "view",
      "type": "function"
    },
    {
      "inputs": [],
      "name": "getUpsMultipliersLength",
      "outputs": [
        {
          "internalType": "uint256",
          "name": "",
          "type": "uint256"
        }
      ],
      "stateMutability": "view",
      "type": "function"
    },
    {
      "inputs": [],
      "name": "halvingAmount",
      "outputs": [
        {
          "internalType": "uint256",
          "name": "",
          "type": "uint256"
        }
      ],
      "stateMutability": "view",
      "type": "function"
    },
    {
      "inputs": [
        {
          "internalType": "uint256",
          "name": "",
          "type": "uint256"
        }
      ],
      "name": "indexToSlot",
      "outputs": [
        {
          "internalType": "uint256",
          "name": "epochId",
          "type": "uint256"
        },
        {
          "internalType": "uint256",
          "name": "initPrice",
          "type": "uint256"
        },
        {
          "internalType": "uint256",
          "name": "startTime",
          "type": "uint256"
        },
        {
          "internalType": "uint256",
          "name": "ups",
          "type": "uint256"
        },
        {
          "internalType": "uint256",
          "name": "upsMultiplier",
          "type": "uint256"
        },
        {
          "internalType": "uint256",
          "name": "lastUpsMultiplierTime",
          "type": "uint256"
        },
        {
          "internalType": "address",
          "name": "miner",
          "type": "address"
        },
        {
          "internalType": "string",
          "name": "uri",
          "type": "string"
        }
      ],
      "stateMutability": "view",
      "type": "function"
    },
    {
      "inputs": [],
      "name": "initialUps",
      "outputs": [
        {
          "internalType": "uint256",
          "name": "",
          "type": "uint256"
        }
      ],
      "stateMutability": "view",
      "type": "function"
    },
    {
      "inputs": [],
      "name": "minInitPrice",
      "outputs": [
        {
          "internalType": "uint256",
          "name": "",
          "type": "uint256"
        }
      ],
      "stateMutability": "view",
      "type": "function"
    },
    {
      "inputs": [
        {
          "internalType": "address",
          "name": "miner",
          "type": "address"
        },
        {
          "internalType": "uint256",
          "name": "index",
          "type": "uint256"
        },
        {
          "internalType": "uint256",
          "name": "epochId",
          "type": "uint256"
        },
        {
          "internalType": "uint256",
          "name": "deadline",
          "type": "uint256"
        },
        {
          "internalType": "uint256",
          "name": "maxPrice",
          "type": "uint256"
        },
        {
          "internalType": "string",
          "name": "_uri",
          "type": "string"
        }
      ],
      "name": "mine",
      "outputs": [
        {
          "internalType": "uint256",
          "name": "price",
          "type": "uint256"
        }
      ],
      "stateMutability": "payable",
      "type": "function"
    },
    {
      "inputs": [],
      "name": "owner",
      "outputs": [
        {
          "internalType": "address",
          "name": "",
          "type": "address"
        }
      ],
      "stateMutability": "view",
      "type": "function"
    },
    {
      "inputs": [],
      "name": "priceMultiplier",
      "outputs": [
        {
          "internalType": "uint256",
          "name": "",
          "type": "uint256"
        }
      ],
      "stateMutability": "view",
      "type": "function"
    },
    {
      "inputs": [],
      "name": "quote",
      "outputs": [
        {
          "internalType": "address",
          "name": "",
          "type": "address"
        }
      ],
      "stateMutability": "view",
      "type": "function"
    },
    {
      "inputs": [],
      "name": "renounceOwnership",
      "outputs": [],
      "stateMutability": "nonpayable",
      "type": "function"
    },
    {
      "inputs": [
        {
          "internalType": "uint64",
          "name": "",
          "type": "uint64"
        }
      ],
      "name": "sequenceToEpoch",
      "outputs": [
        {
          "internalType": "uint256",
          "name": "",
          "type": "uint256"
        }
      ],
      "stateMutability": "view",
      "type": "function"
    },
    {
      "inputs": [
        {
          "internalType": "uint64",
          "name": "",
          "type": "uint64"
        }
      ],
      "name": "sequenceToIndex",
      "outputs": [
        {
          "internalType": "uint256",
          "name": "",
          "type": "uint256"
        }
      ],
      "stateMutability": "view",
      "type": "function"
    },
    {
      "inputs": [
        {
          "internalType": "uint256",
          "name": "_capacity",
          "type": "uint256"
        }
      ],
      "name": "setCapacity",
      "outputs": [],
      "stateMutability": "nonpayable",
      "type": "function"
    },
    {
      "inputs": [
        {
          "internalType": "bool",
          "name": "_enabled",
          "type": "bool"
        }
      ],
      "name": "setEntropyEnabled",
      "outputs": [],
      "stateMutability": "nonpayable",
      "type": "function"
    },
    {
      "inputs": [
        {
          "internalType": "address",
          "name": "_team",
          "type": "address"
        }
      ],
      "name": "setTeam",
      "outputs": [],
      "stateMutability": "nonpayable",
      "type": "function"
    },
    {
      "inputs": [
        {
          "internalType": "address",
          "name": "_treasury",
          "type": "address"
        }
      ],
      "name": "setTreasury",
      "outputs": [],
      "stateMutability": "nonpayable",
      "type": "function"
    },
    {
      "inputs": [
        {
          "internalType": "string",
          "name": "_uri",
          "type": "string"
        }
      ],
      "name": "setUri",
      "outputs": [],
      "stateMutability": "nonpayable",
      "type": "function"
    },
    {
      "inputs": [],
      "name": "startTime",
      "outputs": [
        {
          "internalType": "uint256",
          "name": "",
          "type": "uint256"
        }
      ],
      "stateMutability": "view",
      "type": "function"
    },
    {
      "inputs": [],
      "name": "tailUps",
      "outputs": [
        {
          "internalType": "uint256",
          "name": "",
          "type": "uint256"
        }
      ],
      "stateMutability": "view",
      "type": "function"
    },
    {
      "inputs": [],
      "name": "team",
      "outputs": [
        {
          "internalType": "address",
          "name": "",
          "type": "address"
        }
      ],
      "stateMutability": "view",
      "type": "function"
    },
    {
      "inputs": [],
      "name": "totalMinted",
      "outputs": [
        {
          "internalType": "uint256",
          "name": "",
          "type": "uint256"
        }
      ],
      "stateMutability": "view",
      "type": "function"
    },
    {
      "inputs": [
        {
          "internalType": "address",
          "name": "newOwner",
          "type": "address"
        }
      ],
      "name": "transferOwnership",
      "outputs": [],
      "stateMutability": "nonpayable",
      "type": "function"
    },
    {
      "inputs": [],
      "name": "treasury",
      "outputs": [
        {
          "internalType": "address",
          "name": "",
          "type": "address"
        }
      ],
      "stateMutability": "view",
      "type": "function"
    },
    {
      "inputs": [],
      "name": "unit",
      "outputs": [
        {
          "internalType": "address",
          "name": "",
          "type": "address"
        }
      ],
      "stateMutability": "view",
      "type": "function"
    },
    {
      "inputs": [],
      "name": "upsMultiplierDuration",
      "outputs": [
        {
          "internalType": "uint256",
          "name": "",
          "type": "uint256"
        }
      ],
      "stateMutability": "view",
      "type": "function"
    },
    {
      "inputs": [
        {
          "internalType": "uint256",
          "name": "",
          "type": "uint256"
        }
      ],
      "name": "upsMultipliers",
      "outputs": [
        {
          "internalType": "uint256",
          "name": "",
          "type": "uint256"
        }
      ],
      "stateMutability": "view",
      "type": "function"
    },
    {
      "inputs": [],
      "name": "uri",
      "outputs": [
        {
          "internalType": "string",
          "name": "",
          "type": "string"
        }
      ],
      "stateMutability": "view",
      "type": "function"
    }
  ],
  "bytecode": "0x6102006040523462000a1f5762003540803803806200001e8162000a45565b92833960e082828101031262000a1f57620000398262000a6b565b620000476020840162000a6b565b92620000566040820162000a6b565b90620000656060820162000a6b565b90620000746080820162000a6b565b926200008360a0830162000a6b565b60c083015190926001600160401b03821162000a1f57610100828201898301031262000a1f57620000b362000a24565b818301805182526020808201519083015260408082015190830152606080820151908301526080808201519083015260a0808201519083015260c001519098906001600160401b03811162000a1f57818301601f828686010101121562000a1f57828401810151916001600160401b038311620008a9578260051b60206200013d81830162000a45565b8095815201918501602082858989010101011162000a1f576020838787010101915b60208285898901010101831062000a0e575050505060c089015260e0910181015190870152600160008181558154336001600160a01b03198216811790935560405192916001600160a01b03909116907f8be0079c531659141344cd1fd0a4f28419497f9722a3daafe3b4186f6b6457e09080a3600160048190556006805460ff191690911790556001600160a01b03861615620009ff57506001600160a01b03871615620009ed576001600160a01b03811615620009ed576001600160a01b03831615620009ed576001600160a01b03821615620009ed5785516102588110908115620009de575b50620009cc576020860151670f43fc2c04ee00008110908115620009b9575b50620009a7576040860151620f4240811090811562000995575b506200098357606086015115620009715769d3c21bcecceda1000000606087015111620009715760a0860151801590811562000962575b5062000950576080860151683635c9adc5dea00000811090811562000939575b50620009275760e0860151610e10811090811562000919575b50620009075760c08601515115620008f55760005b60c0870151805182101562000376576200032a82670de0b6b3a76400009262000a80565b5110801562000354575b620003425760010162000306565b604051639253789d60e01b8152600490fd5b50678ac7230489e800006200036e8260c08a015162000a80565b511162000334565b5050608094855260a087815260e091825260c09283524261010052865161012052602087015161014052604087015161016052606087015161018052948601516101a052938501516101c052928401516101e052600280546001600160a01b03199081166001600160a01b03938416179091556003805490911691831691909117905590820151805183916001600160401b038211620008a957680100000000000000008211620008a95760209060075483600755808410620008d4575b50016007600052602060002060005b838110620008bf578585606060408201519101516200046162000a24565b916001835260208301524260408301526060820152670de0b6b3a764000060808201524260a082015260018060a01b03821660c082015260405180602081011060018060401b03602083011117620008a95760208181016040908152600080845260e0850193845280526009825283517fec8156718a8372b1db44bb411437d0870f3e3790d4a08526d024ce1b0b668f6b908155918401517fec8156718a8372b1db44bb411437d0870f3e3790d4a08526d024ce1b0b668f6c558301517fec8156718a8372b1db44bb411437d0870f3e3790d4a08526d024ce1b0b668f6d5560608301517fec8156718a8372b1db44bb411437d0870f3e3790d4a08526d024ce1b0b668f6e5560808301517fec8156718a8372b1db44bb411437d0870f3e3790d4a08526d024ce1b0b668f6f5560a08301517fec8156718a8372b1db44bb411437d0870f3e3790d4a08526d024ce1b0b668f705560c0909201517fec8156718a8372b1db44bb411437d0870f3e3790d4a08526d024ce1b0b668f7180546001600160a01b0319166001600160a01b0392909216919091179055518051906001600160401b038211620008a9576007830154600181811c911680156200089e575b60208210146200088857601f811162000843575b50602090601f8311600114620007c95782600095938695936007938792620007bd575b50508160011b9186199060031b1c1916179101555b604080516001600160a01b03909216808352602083018490526060918301829052908201839052907f94874eb2bf14528a95e5c6208687c5fca7f169fe2341dc382044db518a65079490608090a4604051612a7b908162000ac58239608051818181610c1701526112dc015260a051818181610b2801528181611450015281816115d601528181611657015281816116e00152611efc015260c05181818161101d01528181611b5401528181611c770152611daf015260e0518181816103b101526114a5015261010051816119e4015261012051818181610835015261291f0152610140518181816107110152610db30152610160518181816113d00152611cf701526101805181818161086f01526129e901526101a051818181611f58015261297701526101c051818181611cbd0152612a0c01526101e051818181610eb9015281816111b701526119aa0152f35b01519050878062000658565b906007840160005260206000209160005b601f19851681106200082a5750836000969493600793600193899896601f1981161062000811575b505050811b019101556200066d565b0151871960f88460031b161c1916905587808062000802565b91926020600181928685015181550194019201620007da565b6200087690600785016000526020600020601f850160051c810191602086106200087d575b601f0160051c019062000aab565b8462000635565b909150819062000868565b634e487b7160e01b600052602260045260246000fd5b90607f169062000621565b634e487b7160e01b600052604160045260246000fd5b60019060208451940193818401550162000443565b620008ee9060076000528484600020918201910162000aab565b8562000434565b60405163f845523b60e01b8152600490fd5b604051633575414360e01b8152600490fd5b62093a8091501138620002f1565b6040516359def2e360e01b8152600490fd5b6b033b2e3c9fd0803ce800000091501138620002d8565b60405163cd85413b60e01b8152600490fd5b905060608701511038620002b8565b60405163039392af60e11b8152600490fd5b60405163f7ef89f360e01b8152600490fd5b6001600160c01b031090503862000281565b6040516350e7ef8560e01b8152600490fd5b6729a2241af62c00009150113862000267565b60405163aba612cb60e01b8152600490fd5b6301e133809150113862000248565b604051630349d87560e61b8152600490fd5b630349d87560e61b8152600490fd5b82518152602092830192016200015f565b600080fd5b6040519061010082016001600160401b03811183821017620008a957604052565b6040519190601f01601f191682016001600160401b03811183821017620008a957604052565b51906001600160a01b038216820362000a1f57565b805182101562000a955760209160051b010190565b634e487b7160e01b600052603260045260246000fd5b81811062000ab7575050565b6000815560010162000aab56fe6080604052600436101561001257600080fd5b6000803560e01c908163095cf5c614611fde5781630963054e14611f7b5781631b2cd65e14611f415781631e83409a14611e7d5781632693b82314611e4557816326a6fd7814611e235781632d971e6314611d8a5781633410fe6e14611d6e578163354eacbf14611d365781633a5ddf3014611d1a5781633c92276e14611ce057816342b14a7914611ca657816347ce07cc14611c625781634aebdf2314611c485781634df199e014611c2657816352a5f1f814611b265781635889486e14611b045781635a327ad7146102b35781635cfc1a5114611ae757816361d027b314611abf578163636c0c5e14611aa2578163675b588f14611a85578163715018a614611a29578163750d48b814611a0757816378e97925146119cd5781637d581b23146119935781637eba7ba61461187c57816385f2aef214611854578163875d704b14610cae57816388f4b49e14610c8c5781638da5cb5b14610c645781638fc59c5214610c46578163907af6c014610c02578163909f372a14610bdc57816391915ef814610b57578163999b93af14610b135781639b642de1146109255781639d429b3f146108ee578163a2309ff8146108d1578163a40a4179146108ae578163a734894514610892578163aaf5eb68146102b3578163abf0caa414610858578163b5b7a1841461081e578163c1e7af3514610803578163cd809adc14610750578163d3cd52bc14610734578163d50cb88b146106fa578163d5861d91146106de578163d92233631461064d578163d927c87914610629578163e44d78d0146105f2578163e75722301461055d578163eac989f814610478578163efd331561461045b578163f0f44260146103e0578163f2f4eb261461039c578163f2fde38b146102d7578163f6cb1a49146102b8575063fec3c42a146102b357600080fd5b6120c3565b346102d457806003193601126102d45760206040516102588152f35b80fd5b346102d45760203660031901126102d4576102f0612045565b6102f8612286565b6001600160a01b0390811690811561034857600154826001600160601b0360a01b821617600155167f8be0079c531659141344cd1fd0a4f28419497f9722a3daafe3b4186f6b6457e0600080a380f35b60405162461bcd60e51b815260206004820152602660248201527f4f776e61626c653a206e6577206f776e657220697320746865207a65726f206160448201526564647265737360d01b6064820152608490fd5b346102d457806003193601126102d4576040517f00000000000000000000000000000000000000000000000000000000000000006001600160a01b03168152602090f35b346102d45760203660031901126102d4576103f9612045565b610401612286565b6001600160a01b0316801561044957600280546001600160a01b031916821790557f535aa6f78bf17649b8bd9e38e7f335eb0b9c69dccc753936ed5208d0f7a1b2008280a280f35b604051630349d87560e61b8152600490fd5b346102d457806003193601126102d4576020604051620f42408152f35b346102d457806003193601126102d457604051600060085461049981612153565b8084529060019081811690811561053657506001146104db575b6104d7846104c3818603826121bf565b6040519182916020835260208301906120e6565b0390f35b6008600090815292507ff3f7a9fe364faab93b216da50a3214154f22a0a2b415b23a84c8169e8b636ee35b82841061051e5750505081016020016104c3826104b3565b80546020858701810191909152909301928101610506565b60ff191660208087019190915292151560051b850190920192506104c391508390506104b3565b346102d45760203660031901126102d4576105ea6040602092600435815260098452206105e06007604051926105928461218d565b80548452600181015486850152600281015460408501526003810154606085015260048101546080850152600581015460a085015260068101546001600160a01b031660c0850152016121e0565b60e082015261290f565b604051908152f35b346102d45760203660031901126102d45760406020916001600160401b036106186120ad565b168152600b83522054604051908152f35b346102d457806003193601126102d457602060405169d3c21bcecceda10000008152f35b346102d45760203660031901126102d457604090600435815260096020522080546104d7600183015492600281015490600381015460048201546005830154916106a6600760018060a01b0360068701541695016121e0565b946040519889988952602089015260408801526060870152608086015260a085015260c08401526101008060e08501528301906120e6565b346102d457806003193601126102d45760206040516101908152f35b346102d457806003193601126102d45760206040517f00000000000000000000000000000000000000000000000000000000000000008152f35b346102d457806003193601126102d45760206040516107d08152f35b346102d457806003193601126102d45760405180916007549081835260208093018092600783527fa66cc928b5edb82af9bd49922954155ab7b0942694bea4ce44661d9a8736c68890835b8181106107ef57505050846107b19103856121bf565b60405193838594850191818652518092526040850193925b8281106107d857505050500390f35b8351855286955093810193928101926001016107c9565b82548452928601926001928301920161079b565b346102d457806003193601126102d457602060405160648152f35b346102d457806003193601126102d45760206040517f00000000000000000000000000000000000000000000000000000000000000008152f35b346102d457806003193601126102d45760206040517f00000000000000000000000000000000000000000000000000000000000000008152f35b346102d457806003193601126102d4576020604051610e108152f35b346102d457806003193601126102d4576020604051683635c9adc5dea000008152f35b346102d457806003193601126102d4576020600554604051908152f35b346102d45760203660031901126102d45760406020916001600160401b036109146120ad565b168152600a83522054604051908152f35b346102d457602090816003193601126102d4576001600160401b0391600435838111610b0f57610959903690600401612126565b919093610964612286565b8211610afb57610975600854612153565b601f8111610a97575b508293601f83116001146109f2576109e1908385967fecef73475ef665a2a5fbf2017000371a02e3d6b4c40655e6c381c1b7e04a442896916109e7575b508460011b906000198660031b1c1916176008555b6040519383859485528401916123b0565b0390a180f35b9050810135876109bb565b600884527ff3f7a9fe364faab93b216da50a3214154f22a0a2b415b23a84c8169e8b636ee3601f198416855b818110610a805750907fecef73475ef665a2a5fbf2017000371a02e3d6b4c40655e6c381c1b7e04a44289596856109e1949310610a66575b5050600184811b016008556109d0565b820135600019600387901b60f8161c191690558680610a56565b838801358355968401966001909201918401610a1e565b60086000527ff3f7a9fe364faab93b216da50a3214154f22a0a2b415b23a84c8169e8b636ee3601f840160051c810191838510610af1575b601f0160051c01905b818110610ae5575061097e565b60008155600101610ad8565b9091508190610acf565b634e487b7160e01b83526041600452602483fd5b8280fd5b346102d457806003193601126102d4576040517f00000000000000000000000000000000000000000000000000000000000000006001600160a01b03168152602090f35b346102d45760203660031901126102d457600435610b73612286565b600454811115610bca576101008111610bb8576020817fe71c298396820a2c5ceb679a39b7f754375acb8af8502ce8c83d5c0a190dd09192600455604051908152a180f35b604051630959213360e11b8152600490fd5b6040516369f062a160e01b8152600490fd5b346102d457806003193601126102d45760206040516b033b2e3c9fd0803ce80000008152f35b346102d457806003193601126102d4576040517f00000000000000000000000000000000000000000000000000000000000000006001600160a01b03168152602090f35b346102d457806003193601126102d45760206040516301e133808152f35b346102d457806003193601126102d4576001546040516001600160a01b039091168152602090f35b346102d457806003193601126102d4576040516001600160c01b038152602090f35b60c03660031901126102d457610cc2612045565b60a4356001600160401b038111610b0f57610ce1903690600401612126565b610ce96123f0565b6001600160a01b0383161561184257606435421161183057600454602435101561181f57602435845260096020526040842091610d7d600760405194610d2e8661218d565b8054865260018101546020870152600281015460408701526003810154606087015260048101546080870152600581015460a087015260068101546001600160a01b031660c0870152016121e0565b60e084015282516044350361180d57610d958361290f565b9360843585116117fb5784611405575b670de0b6b3a7640000610dd87f000000000000000000000000000000000000000000000000000000000000000087612301565b6001600160c01b03919004818111156113cc57505b670de0b6b3a7640000610e20610e15610e0a6040890151426122de565b606089015190612301565b608088015190612301565b60c0870151919004906001600160a01b03166112be575b508451600101855260208501524260408501526001600160a01b03811660c0850152610e6d610e64612972565b60045490612314565b6060850152610e7b83612341565b610e8860405191826121bf565b83815236848401116112ba5783836020830137866020858301015260e0850152610eb660a0850151426122de565b927f00000000000000000000000000000000000000000000000000000000000000008411611269575b6024358752600960205260408720855181556020860151600182015560408601516002820155606086015160038201556080860151600482015560a086015160058201556006810160018060a01b0360c0880151166001600160601b0360a01b82541617905560e08601518051906001600160401b03821161125557610f7582610f6c6007860154612153565b6007860161235c565b602090601f83116001146111e857600792918b91836111dd575b50508160011b916000199060031b1c1916179101555b7f94874eb2bf14528a95e5c6208687c5fca7f169fe2341dc382044db518a6507946040513381528760208201526060604082015280610ff8604435966024359660018060a01b03169560608401916123b0565b0390a460ff6006541690816111b3575b5015611191576040516341025b3d60e11b81527f00000000000000000000000000000000000000000000000000000000000000006001600160a01b031690602081600481855afa8015611186576001600160801b03918691611157575b50169081341061114557602090600460405180948193637b43155d60e01b83525af190811561113a5784916110f3575b50926001916001600160401b036020951690818352600a865260243560408420558051600b87526040842055516024357fe1f406b52b3ddecc30a0dc470740ab0621778ffab562ace1e95aa8ec97b99c578480a45b55604051908152f35b90506020813d602011611132575b8161110e602093836121bf565b8101031261112e57516001600160401b038116810361112e576001611095565b8380fd5b3d9150611101565b6040513d86823e3d90fd5b6040516326f160cd60e21b8152600490fd5b611179915060203d60201161117f575b61117181836121bf565b8101906123d1565b86611065565b503d611167565b6040513d87823e3d90fd5b50346111a15760016020926110ea565b60405163c357108f60e01b8152600490fd5b90507f00000000000000000000000000000000000000000000000000000000000000001084611008565b015190508b80610f8f565b90600784018b5260208b20918b5b601f198516811061123d5750918391600193600795601f19811610611224575b505050811b01910155610fa5565b015160001960f88460031b161c191690558b8080611216565b919260206001819286850151815501940192016111f6565b634e487b7160e01b8a52604160045260248afd5b670de0b6b3a764000060808601524260a08601528451604051670de0b6b3a764000081527f664435c9c876d3fd006cc5c607a521154d7ea038dfd3002909e63d171c79832a602060243592a3610edf565b8680fd5b6112ca81600554612334565b60055560c08601516001600160a01b037f00000000000000000000000000000000000000000000000000000000000000008116918a9116823b156113c8576040516340c10f1960e01b81526001600160a01b0391909116600482015260248101849052918290604490829084905af180156113bd5761138e575b5060c086015160405191825260443591602435916001600160a01b0316907ff92d1bb6b0331d2c69228fb19078ffafc68327c12d89104959df91a68d6e549990602090a487610e37565b6001600160401b0381999299116113a9576040529688611344565b634e487b7160e01b82526041600452602482fd5b6040513d8b823e3d90fd5b5080fd5b90507f00000000000000000000000000000000000000000000000000000000000000008082106113fd575b50610ded565b9050876113f7565b6040516323b872dd60e01b6020820152336024820152306044820152856064820152606481528060a08101106001600160401b0360a0830111176117e75760a0810160405261147d907f00000000000000000000000000000000000000000000000000000000000000006001600160a01b0316612482565b611f4085818102048114861517156117d35760405163cce516b760e01b8152906020826004817f00000000000000000000000000000000000000000000000000000000000000006001600160a01b03165afa9182156117c8578892611780575b506003546001600160a01b03161561177957610190878181020481148815171561174c5761271090880204905b87896001600160a01b03851615611760575060648102046064148815171561174c5790876115566127109493611551846115518860648702049889945b87020480966122de565b6122de565b9060018060a01b0360c08a0151168b52600c60205260408b2061157a828254612334565b905560c089015160405191825260443591602435916001600160a01b0316907f3d56c0f9c0bda433d3bb726810c7af85dd51d9bb0ac294209190981af0b6b1d490602090a46002546115fb9082906001600160a01b03908116907f000000000000000000000000000000000000000000000000000000000000000016612446565b60025460405191825260443591602435916001600160a01b0316907f2d773c8297e22771a6f82e5c7df628835b0922498b9d410cee5ff3b52840506290602090a4806116c9575b5081611650575b5050610da5565b61168482827f00000000000000000000000000000000000000000000000000000000000000006001600160a01b0316612446565b60405191825260443591602435916001600160a01b0316907fa2b86913a64c4ccbfab1d82b4097e869df04e0cb627fb523b34483f8baff0a5490602090a48680611649565b6003546117059082906001600160a01b03908116907f000000000000000000000000000000000000000000000000000000000000000016612446565b60035460405191825260443591602435916001600160a01b0316907f8a3906fe72b11528104866a9490a983aca66b613b5b9a5152ebc0e14d098c0e490602090a488611642565b634e487b7160e01b89526011600452602489fd5b8392611551612710969561155161155694988994611547565b879061150a565b9091506020813d6020116117c0575b8161179c602093836121bf565b810103126117bc57516001600160a01b03811681036117bc5790886114dd565b8780fd5b3d915061178f565b6040513d8a823e3d90fd5b634e487b7160e01b87526011600452602487fd5b634e487b7160e01b87526041600452602487fd5b60405163071bc59b60e31b8152600490fd5b60405163a8c92fbb60e01b8152600490fd5b60405162116d0960e51b8152600490fd5b604051636f356ff160e01b8152600490fd5b604051637ac3de3960e11b8152600490fd5b346102d457806003193601126102d4576003546040516001600160a01b039091168152602090f35b346102d457602090816003193601126102d457604090606060e083516118a18161218d565b8381528386820152838582015283838201528360808201528360a08201528360c08201520152600435815260098352206104d7604051916118e18361218d565b805483526001810154908484019182526002810154906040850191825260038101546060860190815260048201546080870190815260058301549160a0880192835260018060a01b03946119456007876006880154169660c08c01978852016121e0565b9660e08a019788526040519a8b9a818c5251908b01525160408a01525160608901525160808801525160a08701525160c0860152511660e084015251610100808401526101208301906120e6565b346102d457806003193601126102d45760206040517f00000000000000000000000000000000000000000000000000000000000000008152f35b346102d457806003193601126102d45760206040517f00000000000000000000000000000000000000000000000000000000000000008152f35b346102d457806003193601126102d4576020604051670f43fc2c04ee00008152f35b346102d457806003193601126102d457611a41612286565b600180546001600160a01b0319811690915581906001600160a01b03167f8be0079c531659141344cd1fd0a4f28419497f9722a3daafe3b4186f6b6457e08280a380f35b346102d457806003193601126102d457602060405162093a808152f35b346102d457806003193601126102d4576020600754604051908152f35b346102d457806003193601126102d4576002546040516001600160a01b039091168152602090f35b346102d457806003193601126102d4576020600454604051908152f35b346102d457806003193601126102d45760206040516729a2241af62c00008152f35b346102d45760603660031901126102d457611b3f6120ad565b6001600160a01b0360243581811603610b0f577f0000000000000000000000000000000000000000000000000000000000000000168015611be1573303611b9057611b8d9060443590612648565b80f35b60405162461bcd60e51b815260206004820152602360248201527f4f6e6c7920456e74726f70792063616e2063616c6c20746869732066756e637460448201526234b7b760e91b6064820152608490fd5b60405162461bcd60e51b815260206004820152601760248201527f456e74726f70792061646472657373206e6f74207365740000000000000000006044820152606490fd5b346102d457806003193601126102d4576020604051678ac7230489e800008152f35b346102d457806003193601126102d45760206105ea612972565b346102d457806003193601126102d4576040517f00000000000000000000000000000000000000000000000000000000000000006001600160a01b03168152602090f35b346102d457806003193601126102d45760206040517f00000000000000000000000000000000000000000000000000000000000000008152f35b346102d457806003193601126102d45760206040517f00000000000000000000000000000000000000000000000000000000000000008152f35b346102d457806003193601126102d45760206040516101008152f35b346102d45760203660031901126102d4576020906040906001600160a01b03611d5d612045565b168152600c83522054604051908152f35b346102d457806003193601126102d45760206040516127108152f35b346102d457806003193601126102d4576040516341025b3d60e11b81526020816004817f00000000000000000000000000000000000000000000000000000000000000006001600160a01b03165afa908115611e185760209291611dfb575b506001600160801b0360405191168152f35b611e129150823d811161117f5761117181836121bf565b82611de9565b6040513d84823e3d90fd5b346102d457806003193601126102d457602060ff600654166040519015158152f35b346102d45760203660031901126102d457600435906007548210156102d4576020611e6f83612060565b90546040519160031b1c8152f35b346102d45760203660031901126102d457611e96612045565b611e9e6123f0565b6001600160a01b038181169190821561044957828452600c60205260408420548015611f2f57611f21817f207f943d8947b3e96fbdf0c94ca580be9f0e3f568c13403218f35da4aa419abd94602094878952600c86528860408120557f000000000000000000000000000000000000000000000000000000000000000016612446565b604051908152a26001815580f35b604051636e71d70760e01b8152600490fd5b346102d457806003193601126102d45760206040517f00000000000000000000000000000000000000000000000000000000000000008152f35b346102d45760203660031901126102d4576004358015158091036113c85760207f4bd59842a0908baa92de7682bf34866a605dbc46af4d0d5d6c9fbcaa05f681ba91611fc5612286565b60ff196006541660ff821617600655604051908152a180f35b346102d45760203660031901126102d457611ff7612045565b611fff612286565b600380546001600160a01b0319166001600160a01b039290921691821790557fa45098bb23478a32ce5b15fa7d3d23ba4b8453a9cd2239566b44839e726f7d9f8280a280f35b600435906001600160a01b038216820361205b57565b600080fd5b6007548110156120975760076000527fa66cc928b5edb82af9bd49922954155ab7b0942694bea4ce44661d9a8736c6880190600090565b634e487b7160e01b600052603260045260246000fd5b600435906001600160401b038216820361205b57565b3461205b57600036600319011261205b576020604051670de0b6b3a76400008152f35b919082519283825260005b848110612112575050826000602080949584010152601f8019910116010190565b6020818301810151848301820152016120f1565b9181601f8401121561205b578235916001600160401b03831161205b576020838186019501011161205b57565b90600182811c92168015612183575b602083101461216d57565b634e487b7160e01b600052602260045260246000fd5b91607f1691612162565b61010081019081106001600160401b038211176121a957604052565b634e487b7160e01b600052604160045260246000fd5b90601f801991011681019081106001600160401b038211176121a957604052565b90604051918260008254926121f484612153565b9081845260019485811690816000146122635750600114612220575b505061221e925003836121bf565b565b9093915060005260209081600020936000915b81831061224b57505061221e93508201013880612210565b85548884018501529485019487945091830191612233565b91505061221e94506020925060ff191682840152151560051b8201013880612210565b6001546001600160a01b0316330361229a57565b606460405162461bcd60e51b815260206004820152602060248201527f4f776e61626c653a2063616c6c6572206973206e6f7420746865206f776e65726044820152fd5b919082039182116122eb57565b634e487b7160e01b600052601160045260246000fd5b818102929181159184041417156122eb57565b811561231e570490565b634e487b7160e01b600052601260045260246000fd5b919082018092116122eb57565b6001600160401b0381116121a957601f01601f191660200190565b90601f811161236a57505050565b600091825260208220906020601f850160051c830194106123a6575b601f0160051c01915b82811061239b57505050565b81815560010161238f565b9092508290612386565b908060209392818452848401376000828201840152601f01601f1916010190565b9081602091031261205b57516001600160801b038116810361205b5790565b600260005414612401576002600055565b60405162461bcd60e51b815260206004820152601f60248201527f5265656e7472616e637947756172643a207265656e7472616e742063616c6c006044820152606490fd5b60405163a9059cbb60e01b60208201526001600160a01b0392909216602483015260448083019390935291815261221e916124826064836121bf565b60018060a01b03169060405160408101908082106001600160401b038311176121a957612511916040526020938482527f5361666545524332303a206c6f772d6c6576656c2063616c6c206661696c6564858301526000808587829751910182855af13d156125a7573d916124f683612341565b9261250460405194856121bf565b83523d868885013e6125ab565b805191821591848315612583575b50505090501561252c5750565b6084906040519062461bcd60e51b82526004820152602a60248201527f5361666545524332303a204552433230206f7065726174696f6e20646964206e6044820152691bdd081cdd58d8d9595960b21b6064820152fd5b9193818094500103126113c8578201519081151582036102d457508038808461251f565b6060915b9192901561260d57508151156125bf575090565b3b156125c85790565b60405162461bcd60e51b815260206004820152601d60248201527f416464726573733a2063616c6c20746f206e6f6e2d636f6e74726163740000006044820152606490fd5b8251909150156126205750805190602001fd5b60405162461bcd60e51b8152602060048201529081906126449060248301906120e6565b0390fd5b6001600160401b0316600052600a602052604060002054600b60205260406000205491600a60205260006040812055600b6020526000604081205581600052600960205260406000206040519061269e8261218d565b8054825260018101549260208301938452600282015493604084019485526126fa60076003850154946060870195865260048101546080880152600581015460a088015260018060a01b0360068201541660c0880152016121e0565b60e0850152868451148015906128cf575b6128a35760e09261271d6007936128e4565b958660808701524260a0870152876000526009602052604060002092865184555160018401555160028301555160038201556080840151600482015560a084015160058201556006810160018060a01b0360c0860151166001600160601b0360a01b825416179055019101518051906001600160401b0382116121a9576127ae826127a88554612153565b8561235c565b602090601f8311600114612816579180602094927f664435c9c876d3fd006cc5c607a521154d7ea038dfd3002909e63d171c79832a969460009261280b575b50508160011b916000199060031b1c19161790555b604051908152a3565b0151905038806127ed565b90601f198316918460005260206000209260005b81811061288b57509260019285927f664435c9c876d3fd006cc5c607a521154d7ea038dfd3002909e63d171c79832a98966020989610612872575b505050811b019055612802565b015160001960f88460031b161c19169055388080612865565b9293602060018192878601518155019501930161282a565b50505050507fe3cc78540857473e811af86237f2ec82d22540c2abbcf0c557a05515bd4c3f7d600080a3565b5060c08401516001600160a01b03161561270b565b6007548015612901576128f79106612060565b90549060031b1c90565b5050670de0b6b3a764000090565b61291d6040820151426122de565b7f00000000000000000000000000000000000000000000000000000000000000009182821161296a576129679261295c60206129619301519384612301565b612314565b906122de565b90565b505050600090565b6005547f0000000000000000000000000000000000000000000000000000000000000000918290600090815b8585101580612a3b575b156129e15760001981146129cd5760016129c791019584871c90612334565b9461299e565b634e487b7160e01b83526011600452602483fd5b9350935050507f0000000000000000000000000000000000000000000000000000000000000000901c7f0000000000000000000000000000000000000000000000000000000000000000808210612a36575090565b905090565b50604081106129a856fea2646970667358221220ca9cb259ca30e1e768c90eb54d02f74f839768e0f86c14551af9bd022d12981664736f6c63430008130033",
  "linkReferences": {},
  "deployedLinkReferences": {}
}